{
  "_format": "hh3-artifact-1",
  "contractName": "auditLog",
  "sourceName": "contracts/auditLog.sol",
  "abi": [
    {
      "inputs": [],
      "stateMutability": "nonpayable",
      "type": "constructor"
    },
    {
      "anonymous": false,
      "inputs": [
        {
          "indexed": true,
          "internalType": "enum auditLog.actionType",
          "name": "action",
          "type": "uint8"
        },
        {
          "indexed": true,
          "internalType": "address",
          "name": "actor",
          "type": "address"
        },
        {
          "indexed": true,
          "internalType": "address",
          "name": "target",
          "type": "address"
        },
        {
          "indexed": false,
          "internalType": "uint256",
          "name": "timestamp",
          "type": "uint256"
        },
        {
          "indexed": false,
          "internalType": "uint256",
          "name": "blockNumber",
          "type": "uint256"
        }
      ],
      "name": "actionLogged",
      "type": "event"
    },
    {
      "inputs": [],
      "name": "chambersContract",
      "outputs": [
        {
          "internalType": "address",
          "name": "",
          "type": "address"
        }
      ],
      "stateMutability": "view",
      "type": "function"
    },
    {
      "inputs": [
        {
          "internalType": "address",
          "name": "wallet",
          "type": "address"
        }
      ],
      "name": "getAgentLogs",
      "outputs": [
        {
          "components": [
            {
              "internalType": "enum auditLog.actionType",
              "name": "action",
              "type": "uint8"
            },
            {
              "internalType": "address",
              "name": "actor",
              "type": "address"
            },
            {
              "internalType": "address",
              "name": "target",
              "type": "address"
            },
            {
              "internalType": "string",
              "name": "details",
              "type": "string"
            },
            {
              "internalType": "uint256",
              "name": "timestamp",
              "type": "uint256"
            },
            {
              "internalType": "uint256",
              "name": "blockNumber",
              "type": "uint256"
            }
          ],
          "internalType": "struct auditLog.logEntry[]",
          "name": "",
          "type": "tuple[]"
        }
      ],
      "stateMutability": "view",
      "type": "function"
    },
    {
      "inputs": [],
      "name": "getAllLogs",
      "outputs": [
        {
          "components": [
            {
              "internalType": "enum auditLog.actionType",
              "name": "action",
              "type": "uint8"
            },
            {
              "internalType": "address",
              "name": "actor",
              "type": "address"
            },
            {
              "internalType": "address",
              "name": "target",
              "type": "address"
            },
            {
              "internalType": "string",
              "name": "details",
              "type": "string"
            },
            {
              "internalType": "uint256",
              "name": "timestamp",
              "type": "uint256"
            },
            {
              "internalType": "uint256",
              "name": "blockNumber",
              "type": "uint256"
            }
          ],
          "internalType": "struct auditLog.logEntry[]",
          "name": "",
          "type": "tuple[]"
        }
      ],
      "stateMutability": "view",
      "type": "function"
    },
    {
      "inputs": [
        {
          "internalType": "address",
          "name": "wallet",
          "type": "address"
        }
      ],
      "name": "getLastActivity",
      "outputs": [
        {
          "internalType": "uint256",
          "name": "",
          "type": "uint256"
        }
      ],
      "stateMutability": "view",
      "type": "function"
    },
    {
      "inputs": [],
      "name": "getTotalLogs",
      "outputs": [
        {
          "internalType": "uint256",
          "name": "",
          "type": "uint256"
        }
      ],
      "stateMutability": "view",
      "type": "function"
    },
    {
      "inputs": [
        {
          "internalType": "address",
          "name": "",
          "type": "address"
        }
      ],
      "name": "lastMessageTime",
      "outputs": [
        {
          "internalType": "uint256",
          "name": "",
          "type": "uint256"
        }
      ],
      "stateMutability": "view",
      "type": "function"
    },
    {
      "inputs": [
        {
          "internalType": "enum auditLog.actionType",
          "name": "_action",
          "type": "uint8"
        },
        {
          "internalType": "address",
          "name": "_actor",
          "type": "address"
        },
        {
          "internalType": "address",
          "name": "_target",
          "type": "address"
        },
        {
          "internalType": "string",
          "name": "_details",
          "type": "string"
        }
      ],
      "name": "log",
      "outputs": [],
      "stateMutability": "nonpayable",
      "type": "function"
    },
    {
      "inputs": [
        {
          "internalType": "uint256",
          "name": "",
          "type": "uint256"
        }
      ],
      "name": "logs",
      "outputs": [
        {
          "internalType": "enum auditLog.actionType",
          "name": "action",
          "type": "uint8"
        },
        {
          "internalType": "address",
          "name": "actor",
          "type": "address"
        },
        {
          "internalType": "address",
          "name": "target",
          "type": "address"
        },
        {
          "internalType": "string",
          "name": "details",
          "type": "string"
        },
        {
          "internalType": "uint256",
          "name": "timestamp",
          "type": "uint256"
        },
        {
          "internalType": "uint256",
          "name": "blockNumber",
          "type": "uint256"
        }
      ],
      "stateMutability": "view",
      "type": "function"
    },
    {
      "inputs": [],
      "name": "owner",
      "outputs": [
        {
          "internalType": "address",
          "name": "",
          "type": "address"
        }
      ],
      "stateMutability": "view",
      "type": "function"
    },
    {
      "inputs": [],
      "name": "registryContract",
      "outputs": [
        {
          "internalType": "address",
          "name": "",
          "type": "address"
        }
      ],
      "stateMutability": "view",
      "type": "function"
    },
    {
      "inputs": [
        {
          "internalType": "address",
          "name": "_registry",
          "type": "address"
        },
        {
          "internalType": "address",
          "name": "_chambers",
          "type": "address"
        }
      ],
      "name": "setAuthorizedContracts",
      "outputs": [],
      "stateMutability": "nonpayable",
      "type": "function"
    }
  ],
  "bytecode": "0x6080604052348015600e575f5ffd5b503360055f6101000a81548173ffffffffffffffffffffffffffffffffffffffff021916908373ffffffffffffffffffffffffffffffffffffffff1602179055506119f08061005c5f395ff3fe608060405234801561000f575f5ffd5b50600436106100a7575f3560e01c8063bd628d261161006f578063bd628d2614610163578063c77a520214610181578063ca30f1cf146101b1578063df97c069146101cf578063e581329b146101eb578063e79899bd14610209576100a7565b806311ae3523146100ab57806328c1f99b146100db5780638da5cb5b146100f9578063a45f971714610117578063b410393b14610133575b5f5ffd5b6100c560048036038101906100c09190610fc5565b61023e565b6040516100d29190611008565b60405180910390f35b6100e3610284565b6040516100f09190611030565b60405180910390f35b6101016102a9565b60405161010e9190611030565b60405180910390f35b610131600480360381019061012c91906111a8565b6102ce565b005b61014d60048036038101906101489190610fc5565b6107a5565b60405161015a9190611008565b60405180910390f35b61016b6107ba565b6040516101789190611008565b60405180910390f35b61019b60048036038101906101969190610fc5565b6107c5565b6040516101a8919061145a565b60405180910390f35b6101b9610abb565b6040516101c69190611030565b60405180910390f35b6101e960048036038101906101e4919061147a565b610ae0565b005b6101f3610bf3565b604051610200919061145a565b60405180910390f35b610223600480360381019061021e91906114e2565b610dd5565b60405161023596959493929190611564565b60405180910390f35b5f60015f8373ffffffffffffffffffffffffffffffffffffffff1673ffffffffffffffffffffffffffffffffffffffff1681526020019081526020015f20549050919050565b60035f9054906101000a900473ffffffffffffffffffffffffffffffffffffffff1681565b60055f9054906101000a900473ffffffffffffffffffffffffffffffffffffffff1681565b60055f9054906101000a900473ffffffffffffffffffffffffffffffffffffffff1673ffffffffffffffffffffffffffffffffffffffff163373ffffffffffffffffffffffffffffffffffffffff161480610375575060035f9054906101000a900473ffffffffffffffffffffffffffffffffffffffff1673ffffffffffffffffffffffffffffffffffffffff163373ffffffffffffffffffffffffffffffffffffffff16145b806103cc575060045f9054906101000a900473ffffffffffffffffffffffffffffffffffffffff1673ffffffffffffffffffffffffffffffffffffffff163373ffffffffffffffffffffffffffffffffffffffff16145b61040b576040517f08c379a000000000000000000000000000000000000000000000000000000000815260040161040290611614565b60405180910390fd5b5f6040518060c0016040528086600a81111561042a57610429611251565b5b81526020018573ffffffffffffffffffffffffffffffffffffffff1681526020018473ffffffffffffffffffffffffffffffffffffffff1681526020018381526020014281526020014381525090505f5f8054905090505f82908060018154018082558091505060019003905f5260205f2090600502015f909190919091505f820151815f015f6101000a81548160ff0219169083600a8111156104d1576104d0611251565b5b02179055506020820151815f0160016101000a81548173ffffffffffffffffffffffffffffffffffffffff021916908373ffffffffffffffffffffffffffffffffffffffff1602179055506040820151816001015f6101000a81548173ffffffffffffffffffffffffffffffffffffffff021916908373ffffffffffffffffffffffffffffffffffffffff1602179055506060820151816002019081610577919061182f565b506080820151816003015560a08201518160040155505060025f8673ffffffffffffffffffffffffffffffffffffffff1673ffffffffffffffffffffffffffffffffffffffff1681526020019081526020015f2081908060018154018082558091505060019003905f5260205f20015f90919091909150555f73ffffffffffffffffffffffffffffffffffffffff168473ffffffffffffffffffffffffffffffffffffffff16146106845760025f8573ffffffffffffffffffffffffffffffffffffffff1673ffffffffffffffffffffffffffffffffffffffff1681526020019081526020015f2081908060018154018082558091505060019003905f5260205f20015f90919091909150555b6005600a81111561069857610697611251565b5b86600a8111156106ab576106aa611251565b5b14806106db57506006600a8111156106c6576106c5611251565b5b86600a8111156106d9576106d8611251565b5b145b15610723574260015f8773ffffffffffffffffffffffffffffffffffffffff1673ffffffffffffffffffffffffffffffffffffffff1681526020019081526020015f20819055505b8373ffffffffffffffffffffffffffffffffffffffff168573ffffffffffffffffffffffffffffffffffffffff1687600a81111561076457610763611251565b5b7f8ba62fc1e86a95c0d85fe9cce55b7a416e56858e3c38426ecd9ac008f8dda3e742436040516107959291906118fe565b60405180910390a4505050505050565b6001602052805f5260405f205f915090505481565b5f5f80549050905090565b60605f60025f8473ffffffffffffffffffffffffffffffffffffffff1673ffffffffffffffffffffffffffffffffffffffff1681526020019081526020015f2080548060200260200160405190810160405280929190818152602001828054801561084d57602002820191905f5260205f20905b815481526020019060010190808311610839575b505050505090505f815167ffffffffffffffff8111156108705761086f611084565b5b6040519080825280602002602001820160405280156108a957816020015b610896610eeb565b81526020019060019003908161088e5790505b5090505f5f90505b8251811015610ab0575f8382815181106108ce576108cd611925565b5b6020026020010151815481106108e7576108e6611925565b5b905f5260205f2090600502016040518060c00160405290815f82015f9054906101000a900460ff16600a81111561092157610920611251565b5b600a81111561093357610932611251565b5b81526020015f820160019054906101000a900473ffffffffffffffffffffffffffffffffffffffff1673ffffffffffffffffffffffffffffffffffffffff1673ffffffffffffffffffffffffffffffffffffffff168152602001600182015f9054906101000a900473ffffffffffffffffffffffffffffffffffffffff1673ffffffffffffffffffffffffffffffffffffffff1673ffffffffffffffffffffffffffffffffffffffff1681526020016002820180546109f19061165f565b80601f0160208091040260200160405190810160405280929190818152602001828054610a1d9061165f565b8015610a685780601f10610a3f57610100808354040283529160200191610a68565b820191905f5260205f20905b815481529060010190602001808311610a4b57829003601f168201915b5050505050815260200160038201548152602001600482015481525050828281518110610a9857610a97611925565b5b602002602001018190525080806001019150506108b1565b508092505050919050565b60045f9054906101000a900473ffffffffffffffffffffffffffffffffffffffff1681565b60055f9054906101000a900473ffffffffffffffffffffffffffffffffffffffff1673ffffffffffffffffffffffffffffffffffffffff163373ffffffffffffffffffffffffffffffffffffffff1614610b6f576040517f08c379a0000000000000000000000000000000000000000000000000000000008152600401610b669061199c565b60405180910390fd5b8160035f6101000a81548173ffffffffffffffffffffffffffffffffffffffff021916908373ffffffffffffffffffffffffffffffffffffffff1602179055508060045f6101000a81548173ffffffffffffffffffffffffffffffffffffffff021916908373ffffffffffffffffffffffffffffffffffffffff1602179055505050565b60605f805480602002602001604051908101604052809291908181526020015f905b82821015610dcc578382905f5260205f2090600502016040518060c00160405290815f82015f9054906101000a900460ff16600a811115610c5957610c58611251565b5b600a811115610c6b57610c6a611251565b5b81526020015f820160019054906101000a900473ffffffffffffffffffffffffffffffffffffffff1673ffffffffffffffffffffffffffffffffffffffff1673ffffffffffffffffffffffffffffffffffffffff168152602001600182015f9054906101000a900473ffffffffffffffffffffffffffffffffffffffff1673ffffffffffffffffffffffffffffffffffffffff1673ffffffffffffffffffffffffffffffffffffffff168152602001600282018054610d299061165f565b80601f0160208091040260200160405190810160405280929190818152602001828054610d559061165f565b8015610da05780601f10610d7757610100808354040283529160200191610da0565b820191905f5260205f20905b815481529060010190602001808311610d8357829003601f168201915b505050505081526020016003820154815260200160048201548152505081526020019060010190610c15565b50505050905090565b5f8181548110610de3575f80fd5b905f5260205f2090600502015f91509050805f015f9054906101000a900460ff1690805f0160019054906101000a900473ffffffffffffffffffffffffffffffffffffffff1690806001015f9054906101000a900473ffffffffffffffffffffffffffffffffffffffff1690806002018054610e5e9061165f565b80601f0160208091040260200160405190810160405280929190818152602001828054610e8a9061165f565b8015610ed55780601f10610eac57610100808354040283529160200191610ed5565b820191905f5260205f20905b815481529060010190602001808311610eb857829003601f168201915b5050505050908060030154908060040154905086565b6040518060c001604052805f600a811115610f0957610f08611251565b5b81526020015f73ffffffffffffffffffffffffffffffffffffffff1681526020015f73ffffffffffffffffffffffffffffffffffffffff168152602001606081526020015f81526020015f81525090565b5f604051905090565b5f5ffd5b5f5ffd5b5f73ffffffffffffffffffffffffffffffffffffffff82169050919050565b5f610f9482610f6b565b9050919050565b610fa481610f8a565b8114610fae575f5ffd5b50565b5f81359050610fbf81610f9b565b92915050565b5f60208284031215610fda57610fd9610f63565b5b5f610fe784828501610fb1565b91505092915050565b5f819050919050565b61100281610ff0565b82525050565b5f60208201905061101b5f830184610ff9565b92915050565b61102a81610f8a565b82525050565b5f6020820190506110435f830184611021565b92915050565b600b8110611055575f5ffd5b50565b5f8135905061106681611049565b92915050565b5f5ffd5b5f5ffd5b5f601f19601f8301169050919050565b7f4e487b71000000000000000000000000000000000000000000000000000000005f52604160045260245ffd5b6110ba82611074565b810181811067ffffffffffffffff821117156110d9576110d8611084565b5b80604052505050565b5f6110eb610f5a565b90506110f782826110b1565b919050565b5f67ffffffffffffffff82111561111657611115611084565b5b61111f82611074565b9050602081019050919050565b828183375f83830152505050565b5f61114c611147846110fc565b6110e2565b90508281526020810184848401111561116857611167611070565b5b61117384828561112c565b509392505050565b5f82601f83011261118f5761118e61106c565b5b813561119f84826020860161113a565b91505092915050565b5f5f5f5f608085870312156111c0576111bf610f63565b5b5f6111cd87828801611058565b94505060206111de87828801610fb1565b93505060406111ef87828801610fb1565b925050606085013567ffffffffffffffff8111156112105761120f610f67565b5b61121c8782880161117b565b91505092959194509250565b5f81519050919050565b5f82825260208201905092915050565b5f819050602082019050919050565b7f4e487b71000000000000000000000000000000000000000000000000000000005f52602160045260245ffd5b600b811061128f5761128e611251565b5b50565b5f81905061129f8261127e565b919050565b5f6112ae82611292565b9050919050565b6112be816112a4565b82525050565b6112cd81610f8a565b82525050565b5f81519050919050565b5f82825260208201905092915050565b8281835e5f83830152505050565b5f611305826112d3565b61130f81856112dd565b935061131f8185602086016112ed565b61132881611074565b840191505092915050565b61133c81610ff0565b82525050565b5f60c083015f8301516113575f8601826112b5565b50602083015161136a60208601826112c4565b50604083015161137d60408601826112c4565b506060830151848203606086015261139582826112fb565b91505060808301516113aa6080860182611333565b5060a08301516113bd60a0860182611333565b508091505092915050565b5f6113d38383611342565b905092915050565b5f602082019050919050565b5f6113f182611228565b6113fb8185611232565b93508360208202850161140d85611242565b805f5b85811015611448578484038952815161142985826113c8565b9450611434836113db565b925060208a01995050600181019050611410565b50829750879550505050505092915050565b5f6020820190508181035f83015261147281846113e7565b905092915050565b5f5f604083850312156114905761148f610f63565b5b5f61149d85828601610fb1565b92505060206114ae85828601610fb1565b9150509250929050565b6114c181610ff0565b81146114cb575f5ffd5b50565b5f813590506114dc816114b8565b92915050565b5f602082840312156114f7576114f6610f63565b5b5f611504848285016114ce565b91505092915050565b611516816112a4565b82525050565b5f82825260208201905092915050565b5f611536826112d3565b611540818561151c565b93506115508185602086016112ed565b61155981611074565b840191505092915050565b5f60c0820190506115775f83018961150d565b6115846020830188611021565b6115916040830187611021565b81810360608301526115a3818661152c565b90506115b26080830185610ff9565b6115bf60a0830184610ff9565b979650505050505050565b7f4e6f7420617574686f72697a65640000000000000000000000000000000000005f82015250565b5f6115fe600e8361151c565b9150611609826115ca565b602082019050919050565b5f6020820190508181035f83015261162b816115f2565b9050919050565b7f4e487b71000000000000000000000000000000000000000000000000000000005f52602260045260245ffd5b5f600282049050600182168061167657607f821691505b60208210810361168957611688611632565b5b50919050565b5f819050815f5260205f209050919050565b5f6020601f8301049050919050565b5f82821b905092915050565b5f600883026116eb7fffffffffffffffffffffffffffffffffffffffffffffffffffffffffffffffff826116b0565b6116f586836116b0565b95508019841693508086168417925050509392505050565b5f819050919050565b5f61173061172b61172684610ff0565b61170d565b610ff0565b9050919050565b5f819050919050565b61174983611716565b61175d61175582611737565b8484546116bc565b825550505050565b5f5f905090565b611774611765565b61177f818484611740565b505050565b5b818110156117a2576117975f8261176c565b600181019050611785565b5050565b601f8211156117e7576117b88161168f565b6117c1846116a1565b810160208510156117d0578190505b6117e46117dc856116a1565b830182611784565b50505b505050565b5f82821c905092915050565b5f6118075f19846008026117ec565b1980831691505092915050565b5f61181f83836117f8565b9150826002028217905092915050565b611838826112d3565b67ffffffffffffffff81111561185157611850611084565b5b61185b825461165f565b6118668282856117a6565b5f60209050601f831160018114611897575f8415611885578287015190505b61188f8582611814565b8655506118f6565b601f1984166118a58661168f565b5f5b828110156118cc578489015182556001820191506020850194506020810190506118a7565b868310156118e957848901516118e5601f8916826117f8565b8355505b6001600288020188555050505b505050505050565b5f6040820190506119115f830185610ff9565b61191e6020830184610ff9565b9392505050565b7f4e487b71000000000000000000000000000000000000000000000000000000005f52603260045260245ffd5b7f4f6e6c79206f776e6572000000000000000000000000000000000000000000005f82015250565b5f611986600a8361151c565b915061199182611952565b602082019050919050565b5f6020820190508181035f8301526119b38161197a565b905091905056fea26469706673582212209dfc531230e73581021b65f2ed568c243cbd04a1dcbe88c5a120b231e93c741064736f6c634300081c0033",
  "linkReferences": {},
  "deployedLinkReferences": {},
  "immutableReferences": {},
  "inputSourceName": "project/contracts/auditLog.sol",
  "buildInfoId": "solc-0_8_28-d09a2590e00b8ef221bffe90bf59e1f7b80292db"
}