{
  "_format": "hh3-artifact-1",
  "contractName": "chambers",
  "sourceName": "contracts/chambers.sol",
  "abi": [
    {
      "inputs": [
        {
          "internalType": "address",
          "name": "_registry",
          "type": "address"
        },
        {
          "internalType": "address",
          "name": "_logger",
          "type": "address"
        }
      ],
      "stateMutability": "nonpayable",
      "type": "constructor"
    },
    {
      "anonymous": false,
      "inputs": [
        {
          "indexed": true,
          "internalType": "uint256",
          "name": "chamberId",
          "type": "uint256"
        },
        {
          "indexed": false,
          "internalType": "string",
          "name": "name",
          "type": "string"
        },
        {
          "indexed": true,
          "internalType": "address",
          "name": "createdBy",
          "type": "address"
        },
        {
          "indexed": false,
          "internalType": "uint256",
          "name": "timestamp",
          "type": "uint256"
        }
      ],
      "name": "chamberCreated",
      "type": "event"
    },
    {
      "anonymous": false,
      "inputs": [
        {
          "indexed": true,
          "internalType": "uint256",
          "name": "chamberId",
          "type": "uint256"
        },
        {
          "indexed": true,
          "internalType": "address",
          "name": "deletedBy",
          "type": "address"
        },
        {
          "indexed": false,
          "internalType": "uint256",
          "name": "timestamp",
          "type": "uint256"
        }
      ],
      "name": "chamberDeleted",
      "type": "event"
    },
    {
      "anonymous": false,
      "inputs": [
        {
          "indexed": true,
          "internalType": "uint256",
          "name": "chamberId",
          "type": "uint256"
        },
        {
          "indexed": true,
          "internalType": "address",
          "name": "sender",
          "type": "address"
        },
        {
          "indexed": false,
          "internalType": "string",
          "name": "ipfsCID",
          "type": "string"
        },
        {
          "indexed": false,
          "internalType": "string",
          "name": "fileName",
          "type": "string"
        },
        {
          "indexed": false,
          "internalType": "uint256",
          "name": "timestamp",
          "type": "uint256"
        }
      ],
      "name": "fileSent",
      "type": "event"
    },
    {
      "anonymous": false,
      "inputs": [
        {
          "indexed": true,
          "internalType": "uint256",
          "name": "chamberId",
          "type": "uint256"
        },
        {
          "indexed": true,
          "internalType": "address",
          "name": "sender",
          "type": "address"
        },
        {
          "indexed": false,
          "internalType": "string",
          "name": "content",
          "type": "string"
        },
        {
          "indexed": false,
          "internalType": "uint256",
          "name": "timestamp",
          "type": "uint256"
        }
      ],
      "name": "messageSent",
      "type": "event"
    },
    {
      "inputs": [],
      "name": "architect",
      "outputs": [
        {
          "internalType": "address",
          "name": "",
          "type": "address"
        }
      ],
      "stateMutability": "view",
      "type": "function"
    },
    {
      "inputs": [],
      "name": "chamberCount",
      "outputs": [
        {
          "internalType": "uint256",
          "name": "",
          "type": "uint256"
        }
      ],
      "stateMutability": "view",
      "type": "function"
    },
    {
      "inputs": [
        {
          "internalType": "uint256",
          "name": "",
          "type": "uint256"
        }
      ],
      "name": "chamberList",
      "outputs": [
        {
          "internalType": "uint256",
          "name": "id",
          "type": "uint256"
        },
        {
          "internalType": "string",
          "name": "name",
          "type": "string"
        },
        {
          "internalType": "string",
          "name": "description",
          "type": "string"
        },
        {
          "internalType": "enum chambers.accessLevel",
          "name": "access",
          "type": "uint8"
        },
        {
          "internalType": "address",
          "name": "createdBy",
          "type": "address"
        },
        {
          "internalType": "uint256",
          "name": "createdAt",
          "type": "uint256"
        },
        {
          "internalType": "bool",
          "name": "exists",
          "type": "bool"
        }
      ],
      "stateMutability": "view",
      "type": "function"
    },
    {
      "inputs": [
        {
          "internalType": "uint256",
          "name": "",
          "type": "uint256"
        },
        {
          "internalType": "uint256",
          "name": "",
          "type": "uint256"
        }
      ],
      "name": "chamberMessages",
      "outputs": [
        {
          "internalType": "uint256",
          "name": "id",
          "type": "uint256"
        },
        {
          "internalType": "address",
          "name": "sender",
          "type": "address"
        },
        {
          "internalType": "string",
          "name": "displayName",
          "type": "string"
        },
        {
          "internalType": "string",
          "name": "content",
          "type": "string"
        },
        {
          "internalType": "string",
          "name": "ipfsCID",
          "type": "string"
        },
        {
          "internalType": "string",
          "name": "fileName",
          "type": "string"
        },
        {
          "internalType": "bool",
          "name": "isFile",
          "type": "bool"
        },
        {
          "internalType": "uint256",
          "name": "timestamp",
          "type": "uint256"
        },
        {
          "internalType": "uint256",
          "name": "blockNumber",
          "type": "uint256"
        }
      ],
      "stateMutability": "view",
      "type": "function"
    },
    {
      "inputs": [
        {
          "internalType": "string",
          "name": "name",
          "type": "string"
        },
        {
          "internalType": "string",
          "name": "description",
          "type": "string"
        },
        {
          "internalType": "enum chambers.accessLevel",
          "name": "access",
          "type": "uint8"
        }
      ],
      "name": "createChamber",
      "outputs": [
        {
          "internalType": "uint256",
          "name": "",
          "type": "uint256"
        }
      ],
      "stateMutability": "nonpayable",
      "type": "function"
    },
    {
      "inputs": [
        {
          "internalType": "uint256",
          "name": "chamberId",
          "type": "uint256"
        }
      ],
      "name": "deleteChamber",
      "outputs": [],
      "stateMutability": "nonpayable",
      "type": "function"
    },
    {
      "inputs": [
        {
          "internalType": "uint256",
          "name": "chamberId",
          "type": "uint256"
        }
      ],
      "name": "getChamber",
      "outputs": [
        {
          "components": [
            {
              "internalType": "uint256",
              "name": "id",
              "type": "uint256"
            },
            {
              "internalType": "string",
              "name": "name",
              "type": "string"
            },
            {
              "internalType": "string",
              "name": "description",
              "type": "string"
            },
            {
              "internalType": "enum chambers.accessLevel",
              "name": "access",
              "type": "uint8"
            },
            {
              "internalType": "address",
              "name": "createdBy",
              "type": "address"
            },
            {
              "internalType": "uint256",
              "name": "createdAt",
              "type": "uint256"
            },
            {
              "internalType": "bool",
              "name": "exists",
              "type": "bool"
            }
          ],
          "internalType": "struct chambers.chamber",
          "name": "",
          "type": "tuple"
        }
      ],
      "stateMutability": "view",
      "type": "function"
    },
    {
      "inputs": [],
      "name": "getChambers",
      "outputs": [
        {
          "components": [
            {
              "internalType": "uint256",
              "name": "id",
              "type": "uint256"
            },
            {
              "internalType": "string",
              "name": "name",
              "type": "string"
            },
            {
              "internalType": "string",
              "name": "description",
              "type": "string"
            },
            {
              "internalType": "enum chambers.accessLevel",
              "name": "access",
              "type": "uint8"
            },
            {
              "internalType": "address",
              "name": "createdBy",
              "type": "address"
            },
            {
              "internalType": "uint256",
              "name": "createdAt",
              "type": "uint256"
            },
            {
              "internalType": "bool",
              "name": "exists",
              "type": "bool"
            }
          ],
          "internalType": "struct chambers.chamber[]",
          "name": "",
          "type": "tuple[]"
        }
      ],
      "stateMutability": "view",
      "type": "function"
    },
    {
      "inputs": [
        {
          "internalType": "uint256",
          "name": "chamberId",
          "type": "uint256"
        }
      ],
      "name": "getMessages",
      "outputs": [
        {
          "components": [
            {
              "internalType": "uint256",
              "name": "id",
              "type": "uint256"
            },
            {
              "internalType": "address",
              "name": "sender",
              "type": "address"
            },
            {
              "internalType": "string",
              "name": "displayName",
              "type": "string"
            },
            {
              "internalType": "string",
              "name": "content",
              "type": "string"
            },
            {
              "internalType": "string",
              "name": "ipfsCID",
              "type": "string"
            },
            {
              "internalType": "string",
              "name": "fileName",
              "type": "string"
            },
            {
              "internalType": "bool",
              "name": "isFile",
              "type": "bool"
            },
            {
              "internalType": "uint256",
              "name": "timestamp",
              "type": "uint256"
            },
            {
              "internalType": "uint256",
              "name": "blockNumber",
              "type": "uint256"
            }
          ],
          "internalType": "struct chambers.message[]",
          "name": "",
          "type": "tuple[]"
        }
      ],
      "stateMutability": "view",
      "type": "function"
    },
    {
      "inputs": [],
      "name": "logger",
      "outputs": [
        {
          "internalType": "contract auditLog",
          "name": "",
          "type": "address"
        }
      ],
      "stateMutability": "view",
      "type": "function"
    },
    {
      "inputs": [],
      "name": "registry",
      "outputs": [
        {
          "internalType": "contract vaultRegistry",
          "name": "",
          "type": "address"
        }
      ],
      "stateMutability": "view",
      "type": "function"
    },
    {
      "inputs": [
        {
          "internalType": "uint256",
          "name": "chamberId",
          "type": "uint256"
        },
        {
          "internalType": "string",
          "name": "ipfsCID",
          "type": "string"
        },
        {
          "internalType": "string",
          "name": "fileName",
          "type": "string"
        }
      ],
      "name": "sendFile",
      "outputs": [],
      "stateMutability": "nonpayable",
      "type": "function"
    },
    {
      "inputs": [
        {
          "internalType": "uint256",
          "name": "chamberId",
          "type": "uint256"
        },
        {
          "internalType": "string",
          "name": "content",
          "type": "string"
        }
      ],
      "name": "sendMessage",
      "outputs": [],
      "stateMutability": "nonpayable",
      "type": "function"
    },
    {
      "inputs": [],
      "name": "totalMessages",
      "outputs": [
        {
          "internalType": "uint256",
          "name": "",
          "type": "uint256"
        }
      ],
      "stateMutability": "view",
      "type": "function"
    }
  ],
  "bytecode": "0x608060405234801561000f575f5ffd5b506040516157e53803806157e583398181016040528101906100319190610516565b815f5f6101000a81548173ffffffffffffffffffffffffffffffffffffffff021916908373ffffffffffffffffffffffffffffffffffffffff1602179055508060015f6101000a81548173ffffffffffffffffffffffffffffffffffffffff021916908373ffffffffffffffffffffffffffffffffffffffff1602179055503360025f6101000a81548173ffffffffffffffffffffffffffffffffffffffff021916908373ffffffffffffffffffffffffffffffffffffffff1602179055506100fe61010560201b60201c565b50506109a4565b6101806040518060400160405280600781526020017f67656e6572616c000000000000000000000000000000000000000000000000008152506040518060400160405280601881526020017f4f70656e206368617420666f7220616c6c206167656e747300000000000000008152505f6102f960201b60201c565b506101fc6040518060400160405280600d81526020017f696e74726f64756374696f6e73000000000000000000000000000000000000008152506040518060400160405280601281526020017f496e74726f6475636520796f757273656c6600000000000000000000000000008152505f6102f960201b60201c565b506102796040518060400160405280600e81526020017f677561726469616e732d68616c6c0000000000000000000000000000000000008152506040518060400160405280600e81526020017f477561726469616e73206f6e6c7900000000000000000000000000000000000081525060016102f960201b60201c565b506102f66040518060400160405280601081526020017f617263686974656374732d7661756c74000000000000000000000000000000008152506040518060400160405280600e81526020017f417263686974656374206f6e6c7900000000000000000000000000000000000081525060026102f960201b60201c565b50565b5f60055f81548092919061030c9061058a565b91905055505f60055490506040518060e00160405280828152602001868152602001858152602001846002811115610347576103466105d1565b5b81526020013373ffffffffffffffffffffffffffffffffffffffff1681526020014281526020016001151581525060035f8381526020019081526020015f205f820151815f015560208201518160010190816103a39190610832565b5060408201518160020190816103b99190610832565b506060820151816003015f6101000a81548160ff021916908360028111156103e4576103e36105d1565b5b021790555060808201518160030160016101000a81548173ffffffffffffffffffffffffffffffffffffffff021916908373ffffffffffffffffffffffffffffffffffffffff16021790555060a0820151816004015560c0820151816005015f6101000a81548160ff0219169083151502179055509050503373ffffffffffffffffffffffffffffffffffffffff16817f250a126a5c1799f7e5570b1503a547ec7161836690155d552168f052675a018b87426040516104a5929190610976565b60405180910390a3809150509392505050565b5f5ffd5b5f73ffffffffffffffffffffffffffffffffffffffff82169050919050565b5f6104e5826104bc565b9050919050565b6104f5816104db565b81146104ff575f5ffd5b50565b5f81519050610510816104ec565b92915050565b5f5f6040838503121561052c5761052b6104b8565b5b5f61053985828601610502565b925050602061054a85828601610502565b9150509250929050565b7f4e487b71000000000000000000000000000000000000000000000000000000005f52601160045260245ffd5b5f819050919050565b5f61059482610581565b91507fffffffffffffffffffffffffffffffffffffffffffffffffffffffffffffffff82036105c6576105c5610554565b5b600182019050919050565b7f4e487b71000000000000000000000000000000000000000000000000000000005f52602160045260245ffd5b5f81519050919050565b7f4e487b71000000000000000000000000000000000000000000000000000000005f52604160045260245ffd5b7f4e487b71000000000000000000000000000000000000000000000000000000005f52602260045260245ffd5b5f600282049050600182168061067957607f821691505b60208210810361068c5761068b610635565b5b50919050565b5f819050815f5260205f209050919050565b5f6020601f8301049050919050565b5f82821b905092915050565b5f600883026106ee7fffffffffffffffffffffffffffffffffffffffffffffffffffffffffffffffff826106b3565b6106f886836106b3565b95508019841693508086168417925050509392505050565b5f819050919050565b5f61073361072e61072984610581565b610710565b610581565b9050919050565b5f819050919050565b61074c83610719565b6107606107588261073a565b8484546106bf565b825550505050565b5f5f905090565b610777610768565b610782818484610743565b505050565b5b818110156107a55761079a5f8261076f565b600181019050610788565b5050565b601f8211156107ea576107bb81610692565b6107c4846106a4565b810160208510156107d3578190505b6107e76107df856106a4565b830182610787565b50505b505050565b5f82821c905092915050565b5f61080a5f19846008026107ef565b1980831691505092915050565b5f61082283836107fb565b9150826002028217905092915050565b61083b826105fe565b67ffffffffffffffff81111561085457610853610608565b5b61085e8254610662565b6108698282856107a9565b5f60209050601f83116001811461089a575f8415610888578287015190505b6108928582610817565b8655506108f9565b601f1984166108a886610692565b5f5b828110156108cf578489015182556001820191506020850194506020810190506108aa565b868310156108ec57848901516108e8601f8916826107fb565b8355505b6001600288020188555050505b505050505050565b5f82825260208201905092915050565b8281835e5f83830152505050565b5f601f19601f8301169050919050565b5f610939826105fe565b6109438185610901565b9350610953818560208601610911565b61095c8161091f565b840191505092915050565b61097081610581565b82525050565b5f6040820190508181035f83015261098e818561092f565b905061099d6020830184610967565b9392505050565b614e34806109b15f395ff3fe608060405234801561000f575f5ffd5b50600436106100e8575f3560e01c8063ae36853d1161008a578063e65017f911610064578063e65017f91461024e578063f24ccbfe14610286578063fdd0cad3146102a4578063ff537cbb146102d4576100e8565b8063ae36853d146101ca578063c039ef91146101fa578063cb2afc1214610230576100e8565b8063936a9ec2116100c6578063936a9ec214610156578063951166c014610174578063aa3afed114610192578063aae8b592146101ae576100e8565b80634b59ec82146100ec5780637b10399914610108578063875ff7d714610126575b5f5ffd5b61010660048036038101906101019190613784565b6102f2565b005b610110610d23565b60405161011d9190613886565b60405180910390f35b610140600480360381019061013b919061389f565b610d47565b60405161014d9190613a86565b60405180910390f35b61015e610faf565b60405161016b9190613ab5565b60405180910390f35b61017c610fd4565b6040516101899190613add565b60405180910390f35b6101ac60048036038101906101a7919061389f565b610fda565b005b6101c860048036038101906101c39190613af6565b611766565b005b6101e460048036038101906101df919061389f565b6121a4565b6040516101f19190613ce2565b60405180910390f35b610214600480360381019061020f919061389f565b6126ed565b6040516102279796959493929190613d68565b60405180910390f35b61023861286f565b6040516102459190613f3e565b60405180910390f35b61026860048036038101906102639190613f5e565b612ba0565b60405161027d99989796959493929190613f9c565b60405180910390f35b61028e612e47565b60405161029b9190614063565b60405180910390f35b6102be60048036038101906102b9919061409f565b612e6c565b6040516102cb9190613add565b60405180910390f35b6102dc6133dd565b6040516102e99190613add565b60405180910390f35b5f5f9054906101000a900473ffffffffffffffffffffffffffffffffffffffff1673ffffffffffffffffffffffffffffffffffffffff1663c3c5a547336040518263ffffffff1660e01b815260040161034b9190613ab5565b602060405180830381865afa158015610366573d5f5f3e3d5ffd5b505050506040513d601f19601f8201168201806040525081019061038a9190614151565b6103c9576040517f08c379a00000000000000000000000000000000000000000000000000000000081526004016103c0906141c6565b60405180910390fd5b5f5f9054906101000a900473ffffffffffffffffffffffffffffffffffffffff1673ffffffffffffffffffffffffffffffffffffffff1663e16c0652336040518263ffffffff1660e01b81526004016104229190613ab5565b602060405180830381865afa15801561043d573d5f5f3e3d5ffd5b505050506040513d601f19601f820116820180604052508101906104619190614151565b156104a1576040517f08c379a00000000000000000000000000000000000000000000000000000000081526004016104989061422e565b60405180910390fd5b8260035f8281526020019081526020015f206005015f9054906101000a900460ff16610502576040517f08c379a00000000000000000000000000000000000000000000000000000000081526004016104f990614296565b60405180910390fd5b5f60035f8381526020019081526020015f206003015f9054906101000a900460ff16905060028081111561053957610538613939565b5b81600281111561054c5761054b613939565b5b036106bb575f5f9054906101000a900473ffffffffffffffffffffffffffffffffffffffff1673ffffffffffffffffffffffffffffffffffffffff166391d148545f5f9054906101000a900473ffffffffffffffffffffffffffffffffffffffff1673ffffffffffffffffffffffffffffffffffffffff166395d115136040518163ffffffff1660e01b8152600401602060405180830381865afa1580156105f6573d5f5f3e3d5ffd5b505050506040513d601f19601f8201168201806040525081019061061a91906142e7565b336040518363ffffffff1660e01b8152600401610638929190614321565b602060405180830381865afa158015610653573d5f5f3e3d5ffd5b505050506040513d601f19601f820116820180604052508101906106779190614151565b6106b6576040517f08c379a00000000000000000000000000000000000000000000000000000000081526004016106ad90614392565b60405180910390fd5b61097b565b600160028111156106cf576106ce613939565b5b8160028111156106e2576106e1613939565b5b0361097a575f5f9054906101000a900473ffffffffffffffffffffffffffffffffffffffff1673ffffffffffffffffffffffffffffffffffffffff166391d148545f5f9054906101000a900473ffffffffffffffffffffffffffffffffffffffff1673ffffffffffffffffffffffffffffffffffffffff166324ea54f46040518163ffffffff1660e01b8152600401602060405180830381865afa15801561078c573d5f5f3e3d5ffd5b505050506040513d601f19601f820116820180604052508101906107b091906142e7565b336040518363ffffffff1660e01b81526004016107ce929190614321565b602060405180830381865afa1580156107e9573d5f5f3e3d5ffd5b505050506040513d601f19601f8201168201806040525081019061080d9190614151565b8061093a57505f5f9054906101000a900473ffffffffffffffffffffffffffffffffffffffff1673ffffffffffffffffffffffffffffffffffffffff166391d148545f5f9054906101000a900473ffffffffffffffffffffffffffffffffffffffff1673ffffffffffffffffffffffffffffffffffffffff166395d115136040518163ffffffff1660e01b8152600401602060405180830381865afa1580156108b8573d5f5f3e3d5ffd5b505050506040513d601f19601f820116820180604052508101906108dc91906142e7565b336040518363ffffffff1660e01b81526004016108fa929190614321565b602060405180830381865afa158015610915573d5f5f3e3d5ffd5b505050506040513d601f19601f820116820180604052508101906109399190614151565b5b610979576040517f08c379a0000000000000000000000000000000000000000000000000000000008152600401610970906143fa565b60405180910390fd5b5b5b5f8451116109be576040517f08c379a00000000000000000000000000000000000000000000000000000000081526004016109b590614462565b60405180910390fd5b5f835111610a01576040517f08c379a00000000000000000000000000000000000000000000000000000000081526004016109f8906144ca565b60405180910390fd5b5f5f5f9054906101000a900473ffffffffffffffffffffffffffffffffffffffff1673ffffffffffffffffffffffffffffffffffffffff1663fb3551ff336040518263ffffffff1660e01b8152600401610a5b9190613ab5565b5f60405180830381865afa158015610a75573d5f5f3e3d5ffd5b505050506040513d5f823e3d601f19601f82011682018060405250810190610a9d9190614617565b90505f60405180610120016040528060065481526020013373ffffffffffffffffffffffffffffffffffffffff168152602001835f0151815260200160405180602001604052805f815250815260200187815260200186815260200160011515815260200142815260200143815250905060045f8881526020019081526020015f2081908060018154018082558091505060019003905f5260205f2090600902015f909190919091505f820151815f01556020820151816001015f6101000a81548173ffffffffffffffffffffffffffffffffffffffff021916908373ffffffffffffffffffffffffffffffffffffffff1602179055506040820151816002019081610ba99190614852565b506060820151816003019081610bbf9190614852565b506080820151816004019081610bd59190614852565b5060a0820151816005019081610beb9190614852565b5060c0820151816006015f6101000a81548160ff02191690831515021790555060e082015181600701556101008201518160080155505060065f815480929190610c349061494e565b919050555060015f9054906101000a900473ffffffffffffffffffffffffffffffffffffffff1673ffffffffffffffffffffffffffffffffffffffff1663a45f97176006335f896040518563ffffffff1660e01b8152600401610c9a94939291906149db565b5f604051808303815f87803b158015610cb1575f5ffd5b505af1158015610cc3573d5f5f3e3d5ffd5b505050503373ffffffffffffffffffffffffffffffffffffffff16877f2489351499d90796d781eb0a5061ee81aa13d1acff49e448f71cb07de3cf5a67888842604051610d1293929190614a25565b60405180910390a350505050505050565b5f5f9054906101000a900473ffffffffffffffffffffffffffffffffffffffff1681565b610d4f6135a2565b60035f8381526020019081526020015f206005015f9054906101000a900460ff16610daf576040517f08c379a0000000000000000000000000000000000000000000000000000000008152600401610da690614296565b60405180910390fd5b60035f8381526020019081526020015f206040518060e00160405290815f8201548152602001600182018054610de49061468b565b80601f0160208091040260200160405190810160405280929190818152602001828054610e109061468b565b8015610e5b5780601f10610e3257610100808354040283529160200191610e5b565b820191905f5260205f20905b815481529060010190602001808311610e3e57829003601f168201915b50505050508152602001600282018054610e749061468b565b80601f0160208091040260200160405190810160405280929190818152602001828054610ea09061468b565b8015610eeb5780601f10610ec257610100808354040283529160200191610eeb565b820191905f5260205f20905b815481529060010190602001808311610ece57829003601f168201915b50505050508152602001600382015f9054906101000a900460ff166002811115610f1857610f17613939565b5b6002811115610f2a57610f29613939565b5b81526020016003820160019054906101000a900473ffffffffffffffffffffffffffffffffffffffff1673ffffffffffffffffffffffffffffffffffffffff1673ffffffffffffffffffffffffffffffffffffffff16815260200160048201548152602001600582015f9054906101000a900460ff1615151515815250509050919050565b60025f9054906101000a900473ffffffffffffffffffffffffffffffffffffffff1681565b60065481565b5f5f9054906101000a900473ffffffffffffffffffffffffffffffffffffffff1673ffffffffffffffffffffffffffffffffffffffff1663c3c5a547336040518263ffffffff1660e01b81526004016110339190613ab5565b602060405180830381865afa15801561104e573d5f5f3e3d5ffd5b505050506040513d601f19601f820116820180604052508101906110729190614151565b6110b1576040517f08c379a00000000000000000000000000000000000000000000000000000000081526004016110a8906141c6565b60405180910390fd5b5f5f9054906101000a900473ffffffffffffffffffffffffffffffffffffffff1673ffffffffffffffffffffffffffffffffffffffff1663e16c0652336040518263ffffffff1660e01b815260040161110a9190613ab5565b602060405180830381865afa158015611125573d5f5f3e3d5ffd5b505050506040513d601f19601f820116820180604052508101906111499190614151565b15611189576040517f08c379a00000000000000000000000000000000000000000000000000000000081526004016111809061422e565b60405180910390fd5b5f5f9054906101000a900473ffffffffffffffffffffffffffffffffffffffff1673ffffffffffffffffffffffffffffffffffffffff166391d148545f5f9054906101000a900473ffffffffffffffffffffffffffffffffffffffff1673ffffffffffffffffffffffffffffffffffffffff166324ea54f46040518163ffffffff1660e01b8152600401602060405180830381865afa15801561122e573d5f5f3e3d5ffd5b505050506040513d601f19601f8201168201806040525081019061125291906142e7565b336040518363ffffffff1660e01b8152600401611270929190614321565b602060405180830381865afa15801561128b573d5f5f3e3d5ffd5b505050506040513d601f19601f820116820180604052508101906112af9190614151565b806113dc57505f5f9054906101000a900473ffffffffffffffffffffffffffffffffffffffff1673ffffffffffffffffffffffffffffffffffffffff166391d148545f5f9054906101000a900473ffffffffffffffffffffffffffffffffffffffff1673ffffffffffffffffffffffffffffffffffffffff166395d115136040518163ffffffff1660e01b8152600401602060405180830381865afa15801561135a573d5f5f3e3d5ffd5b505050506040513d601f19601f8201168201806040525081019061137e91906142e7565b336040518363ffffffff1660e01b815260040161139c929190614321565b602060405180830381865afa1580156113b7573d5f5f3e3d5ffd5b505050506040513d601f19601f820116820180604052508101906113db9190614151565b5b61141b576040517f08c379a000000000000000000000000000000000000000000000000000000000815260040161141290614ab2565b60405180910390fd5b60035f8281526020019081526020015f206005015f9054906101000a900460ff1661147b576040517f08c379a000000000000000000000000000000000000000000000000000000000815260040161147290614296565b60405180910390fd5b5f5f9054906101000a900473ffffffffffffffffffffffffffffffffffffffff1673ffffffffffffffffffffffffffffffffffffffff166391d148545f5f9054906101000a900473ffffffffffffffffffffffffffffffffffffffff1673ffffffffffffffffffffffffffffffffffffffff166395d115136040518163ffffffff1660e01b8152600401602060405180830381865afa158015611520573d5f5f3e3d5ffd5b505050506040513d601f19601f8201168201806040525081019061154491906142e7565b336040518363ffffffff1660e01b8152600401611562929190614321565b602060405180830381865afa15801561157d573d5f5f3e3d5ffd5b505050506040513d601f19601f820116820180604052508101906115a19190614151565b611648573373ffffffffffffffffffffffffffffffffffffffff1660035f8381526020019081526020015f2060030160019054906101000a900473ffffffffffffffffffffffffffffffffffffffff1673ffffffffffffffffffffffffffffffffffffffff1614611647576040517f08c379a000000000000000000000000000000000000000000000000000000000815260040161163e90614b1a565b60405180910390fd5b5b5f60035f8381526020019081526020015f206005015f6101000a81548160ff02191690831515021790555060015f9054906101000a900473ffffffffffffffffffffffffffffffffffffffff1673ffffffffffffffffffffffffffffffffffffffff1663a45f97176008335f60035f8781526020019081526020015f206001016040518563ffffffff1660e01b81526004016116e79493929190614bb9565b5f604051808303815f87803b1580156116fe575f5ffd5b505af1158015611710573d5f5f3e3d5ffd5b505050503373ffffffffffffffffffffffffffffffffffffffff16817f50af30270c0b6851faac978753620862a5e5cac0358d1258f73b3ffac6c4540b4260405161175b9190613add565b60405180910390a350565b5f5f9054906101000a900473ffffffffffffffffffffffffffffffffffffffff1673ffffffffffffffffffffffffffffffffffffffff1663c3c5a547336040518263ffffffff1660e01b81526004016117bf9190613ab5565b602060405180830381865afa1580156117da573d5f5f3e3d5ffd5b505050506040513d601f19601f820116820180604052508101906117fe9190614151565b61183d576040517f08c379a0000000000000000000000000000000000000000000000000000000008152600401611834906141c6565b60405180910390fd5b5f5f9054906101000a900473ffffffffffffffffffffffffffffffffffffffff1673ffffffffffffffffffffffffffffffffffffffff1663e16c0652336040518263ffffffff1660e01b81526004016118969190613ab5565b602060405180830381865afa1580156118b1573d5f5f3e3d5ffd5b505050506040513d601f19601f820116820180604052508101906118d59190614151565b15611915576040517f08c379a000000000000000000000000000000000000000000000000000000000815260040161190c9061422e565b60405180910390fd5b8160035f8281526020019081526020015f206005015f9054906101000a900460ff16611976576040517f08c379a000000000000000000000000000000000000000000000000000000000815260040161196d90614296565b60405180910390fd5b5f60035f8381526020019081526020015f206003015f9054906101000a900460ff1690506002808111156119ad576119ac613939565b5b8160028111156119c0576119bf613939565b5b03611b2f575f5f9054906101000a900473ffffffffffffffffffffffffffffffffffffffff1673ffffffffffffffffffffffffffffffffffffffff166391d148545f5f9054906101000a900473ffffffffffffffffffffffffffffffffffffffff1673ffffffffffffffffffffffffffffffffffffffff166395d115136040518163ffffffff1660e01b8152600401602060405180830381865afa158015611a6a573d5f5f3e3d5ffd5b505050506040513d601f19601f82011682018060405250810190611a8e91906142e7565b336040518363ffffffff1660e01b8152600401611aac929190614321565b602060405180830381865afa158015611ac7573d5f5f3e3d5ffd5b505050506040513d601f19601f82011682018060405250810190611aeb9190614151565b611b2a576040517f08c379a0000000000000000000000000000000000000000000000000000000008152600401611b2190614392565b60405180910390fd5b611def565b60016002811115611b4357611b42613939565b5b816002811115611b5657611b55613939565b5b03611dee575f5f9054906101000a900473ffffffffffffffffffffffffffffffffffffffff1673ffffffffffffffffffffffffffffffffffffffff166391d148545f5f9054906101000a900473ffffffffffffffffffffffffffffffffffffffff1673ffffffffffffffffffffffffffffffffffffffff166324ea54f46040518163ffffffff1660e01b8152600401602060405180830381865afa158015611c00573d5f5f3e3d5ffd5b505050506040513d601f19601f82011682018060405250810190611c2491906142e7565b336040518363ffffffff1660e01b8152600401611c42929190614321565b602060405180830381865afa158015611c5d573d5f5f3e3d5ffd5b505050506040513d601f19601f82011682018060405250810190611c819190614151565b80611dae57505f5f9054906101000a900473ffffffffffffffffffffffffffffffffffffffff1673ffffffffffffffffffffffffffffffffffffffff166391d148545f5f9054906101000a900473ffffffffffffffffffffffffffffffffffffffff1673ffffffffffffffffffffffffffffffffffffffff166395d115136040518163ffffffff1660e01b8152600401602060405180830381865afa158015611d2c573d5f5f3e3d5ffd5b505050506040513d601f19601f82011682018060405250810190611d5091906142e7565b336040518363ffffffff1660e01b8152600401611d6e929190614321565b602060405180830381865afa158015611d89573d5f5f3e3d5ffd5b505050506040513d601f19601f82011682018060405250810190611dad9190614151565b5b611ded576040517f08c379a0000000000000000000000000000000000000000000000000000000008152600401611de4906143fa565b60405180910390fd5b5b5b5f835111611e32576040517f08c379a0000000000000000000000000000000000000000000000000000000008152600401611e2990614c4d565b60405180910390fd5b6103e883511115611e78576040517f08c379a0000000000000000000000000000000000000000000000000000000008152600401611e6f90614cb5565b60405180910390fd5b5f5f5f9054906101000a900473ffffffffffffffffffffffffffffffffffffffff1673ffffffffffffffffffffffffffffffffffffffff1663fb3551ff336040518263ffffffff1660e01b8152600401611ed29190613ab5565b5f60405180830381865afa158015611eec573d5f5f3e3d5ffd5b505050506040513d5f823e3d601f19601f82011682018060405250810190611f149190614617565b90505f60405180610120016040528060065481526020013373ffffffffffffffffffffffffffffffffffffffff168152602001835f0151815260200186815260200160405180602001604052805f815250815260200160405180602001604052805f81525081526020015f1515815260200142815260200143815250905060045f8781526020019081526020015f2081908060018154018082558091505060019003905f5260205f2090600902015f909190919091505f820151815f01556020820151816001015f6101000a81548173ffffffffffffffffffffffffffffffffffffffff021916908373ffffffffffffffffffffffffffffffffffffffff160217905550604082015181600201908161202d9190614852565b5060608201518160030190816120439190614852565b5060808201518160040190816120599190614852565b5060a082015181600501908161206f9190614852565b5060c0820151816006015f6101000a81548160ff02191690831515021790555060e082015181600701556101008201518160080155505060065f8154809291906120b89061494e565b919050555060015f9054906101000a900473ffffffffffffffffffffffffffffffffffffffff1673ffffffffffffffffffffffffffffffffffffffff1663a45f97176005335f896040518563ffffffff1660e01b815260040161211e94939291906149db565b5f604051808303815f87803b158015612135575f5ffd5b505af1158015612147573d5f5f3e3d5ffd5b505050503373ffffffffffffffffffffffffffffffffffffffff16867f3c0c15b38c2dfb0909aa821402611aef2b77b4344e7d1b74e7672ef7914d52068742604051612194929190614cd3565b60405180910390a3505050505050565b60605f5f9054906101000a900473ffffffffffffffffffffffffffffffffffffffff1673ffffffffffffffffffffffffffffffffffffffff1663c3c5a547336040518263ffffffff1660e01b81526004016121ff9190613ab5565b602060405180830381865afa15801561221a573d5f5f3e3d5ffd5b505050506040513d601f19601f8201168201806040525081019061223e9190614151565b61227d576040517f08c379a0000000000000000000000000000000000000000000000000000000008152600401612274906141c6565b60405180910390fd5b5f5f9054906101000a900473ffffffffffffffffffffffffffffffffffffffff1673ffffffffffffffffffffffffffffffffffffffff1663e16c0652336040518263ffffffff1660e01b81526004016122d69190613ab5565b602060405180830381865afa1580156122f1573d5f5f3e3d5ffd5b505050506040513d601f19601f820116820180604052508101906123159190614151565b15612355576040517f08c379a000000000000000000000000000000000000000000000000000000000815260040161234c9061422e565b60405180910390fd5b60035f8381526020019081526020015f206005015f9054906101000a900460ff166123b5576040517f08c379a00000000000000000000000000000000000000000000000000000000081526004016123ac90614296565b60405180910390fd5b60045f8381526020019081526020015f20805480602002602001604051908101604052809291908181526020015f905b828210156126e2578382905f5260205f209060090201604051806101200160405290815f8201548152602001600182015f9054906101000a900473ffffffffffffffffffffffffffffffffffffffff1673ffffffffffffffffffffffffffffffffffffffff1673ffffffffffffffffffffffffffffffffffffffff1681526020016002820180546124759061468b565b80601f01602080910402602001604051908101604052809291908181526020018280546124a19061468b565b80156124ec5780601f106124c3576101008083540402835291602001916124ec565b820191905f5260205f20905b8154815290600101906020018083116124cf57829003601f168201915b505050505081526020016003820180546125059061468b565b80601f01602080910402602001604051908101604052809291908181526020018280546125319061468b565b801561257c5780601f106125535761010080835404028352916020019161257c565b820191905f5260205f20905b81548152906001019060200180831161255f57829003601f168201915b505050505081526020016004820180546125959061468b565b80601f01602080910402602001604051908101604052809291908181526020018280546125c19061468b565b801561260c5780601f106125e35761010080835404028352916020019161260c565b820191905f5260205f20905b8154815290600101906020018083116125ef57829003601f168201915b505050505081526020016005820180546126259061468b565b80601f01602080910402602001604051908101604052809291908181526020018280546126519061468b565b801561269c5780601f106126735761010080835404028352916020019161269c565b820191905f5260205f20905b81548152906001019060200180831161267f57829003601f168201915b50505050508152602001600682015f9054906101000a900460ff1615151515815260200160078201548152602001600882015481525050815260200190600101906123e5565b505050509050919050565b6003602052805f5260405f205f91509050805f0154908060010180546127129061468b565b80601f016020809104026020016040519081016040528092919081815260200182805461273e9061468b565b80156127895780601f1061276057610100808354040283529160200191612789565b820191905f5260205f20905b81548152906001019060200180831161276c57829003601f168201915b50505050509080600201805461279e9061468b565b80601f01602080910402602001604051908101604052809291908181526020018280546127ca9061468b565b80156128155780601f106127ec57610100808354040283529160200191612815565b820191905f5260205f20905b8154815290600101906020018083116127f857829003601f168201915b505050505090806003015f9054906101000a900460ff16908060030160019054906101000a900473ffffffffffffffffffffffffffffffffffffffff1690806004015490806005015f9054906101000a900460ff16905087565b60605f5f90505f600190505b60055481116128cc5760035f8281526020019081526020015f206005015f9054906101000a900460ff16156128b95781806128b59061494e565b9250505b80806128c49061494e565b91505061287b565b505f8167ffffffffffffffff8111156128e8576128e7613660565b5b60405190808252806020026020018201604052801561292157816020015b61290e6135a2565b8152602001906001900390816129065790505b5090505f5f90505f600190505b6005548111612b965760035f8281526020019081526020015f206005015f9054906101000a900460ff1615612b835760035f8281526020019081526020015f206040518060e00160405290815f82015481526020016001820180546129929061468b565b80601f01602080910402602001604051908101604052809291908181526020018280546129be9061468b565b8015612a095780601f106129e057610100808354040283529160200191612a09565b820191905f5260205f20905b8154815290600101906020018083116129ec57829003601f168201915b50505050508152602001600282018054612a229061468b565b80601f0160208091040260200160405190810160405280929190818152602001828054612a4e9061468b565b8015612a995780601f10612a7057610100808354040283529160200191612a99565b820191905f5260205f20905b815481529060010190602001808311612a7c57829003601f168201915b50505050508152602001600382015f9054906101000a900460ff166002811115612ac657612ac5613939565b5b6002811115612ad857612ad7613939565b5b81526020016003820160019054906101000a900473ffffffffffffffffffffffffffffffffffffffff1673ffffffffffffffffffffffffffffffffffffffff1673ffffffffffffffffffffffffffffffffffffffff16815260200160048201548152602001600582015f9054906101000a900460ff161515151581525050838381518110612b6957612b68614d01565b5b60200260200101819052508180612b7f9061494e565b9250505b8080612b8e9061494e565b91505061292e565b5081935050505090565b6004602052815f5260405f208181548110612bb9575f80fd5b905f5260205f2090600902015f9150915050805f015490806001015f9054906101000a900473ffffffffffffffffffffffffffffffffffffffff1690806002018054612c049061468b565b80601f0160208091040260200160405190810160405280929190818152602001828054612c309061468b565b8015612c7b5780601f10612c5257610100808354040283529160200191612c7b565b820191905f5260205f20905b815481529060010190602001808311612c5e57829003601f168201915b505050505090806003018054612c909061468b565b80601f0160208091040260200160405190810160405280929190818152602001828054612cbc9061468b565b8015612d075780601f10612cde57610100808354040283529160200191612d07565b820191905f5260205f20905b815481529060010190602001808311612cea57829003601f168201915b505050505090806004018054612d1c9061468b565b80601f0160208091040260200160405190810160405280929190818152602001828054612d489061468b565b8015612d935780601f10612d6a57610100808354040283529160200191612d93565b820191905f5260205f20905b815481529060010190602001808311612d7657829003601f168201915b505050505090806005018054612da89061468b565b80601f0160208091040260200160405190810160405280929190818152602001828054612dd49061468b565b8015612e1f5780601f10612df657610100808354040283529160200191612e1f565b820191905f5260205f20905b815481529060010190602001808311612e0257829003601f168201915b505050505090806006015f9054906101000a900460ff16908060070154908060080154905089565b60015f9054906101000a900473ffffffffffffffffffffffffffffffffffffffff1681565b5f5f5f9054906101000a900473ffffffffffffffffffffffffffffffffffffffff1673ffffffffffffffffffffffffffffffffffffffff1663c3c5a547336040518263ffffffff1660e01b8152600401612ec69190613ab5565b602060405180830381865afa158015612ee1573d5f5f3e3d5ffd5b505050506040513d601f19601f82011682018060405250810190612f059190614151565b612f44576040517f08c379a0000000000000000000000000000000000000000000000000000000008152600401612f3b906141c6565b60405180910390fd5b5f5f9054906101000a900473ffffffffffffffffffffffffffffffffffffffff1673ffffffffffffffffffffffffffffffffffffffff1663e16c0652336040518263ffffffff1660e01b8152600401612f9d9190613ab5565b602060405180830381865afa158015612fb8573d5f5f3e3d5ffd5b505050506040513d601f19601f82011682018060405250810190612fdc9190614151565b1561301c576040517f08c379a00000000000000000000000000000000000000000000000000000000081526004016130139061422e565b60405180910390fd5b5f5f9054906101000a900473ffffffffffffffffffffffffffffffffffffffff1673ffffffffffffffffffffffffffffffffffffffff166391d148545f5f9054906101000a900473ffffffffffffffffffffffffffffffffffffffff1673ffffffffffffffffffffffffffffffffffffffff166324ea54f46040518163ffffffff1660e01b8152600401602060405180830381865afa1580156130c1573d5f5f3e3d5ffd5b505050506040513d601f19601f820116820180604052508101906130e591906142e7565b336040518363ffffffff1660e01b8152600401613103929190614321565b602060405180830381865afa15801561311e573d5f5f3e3d5ffd5b505050506040513d601f19601f820116820180604052508101906131429190614151565b8061326f57505f5f9054906101000a900473ffffffffffffffffffffffffffffffffffffffff1673ffffffffffffffffffffffffffffffffffffffff166391d148545f5f9054906101000a900473ffffffffffffffffffffffffffffffffffffffff1673ffffffffffffffffffffffffffffffffffffffff166395d115136040518163ffffffff1660e01b8152600401602060405180830381865afa1580156131ed573d5f5f3e3d5ffd5b505050506040513d601f19601f8201168201806040525081019061321191906142e7565b336040518363ffffffff1660e01b815260040161322f929190614321565b602060405180830381865afa15801561324a573d5f5f3e3d5ffd5b505050506040513d601f19601f8201168201806040525081019061326e9190614151565b5b6132ae576040517f08c379a00000000000000000000000000000000000000000000000000000000081526004016132a590614ab2565b60405180910390fd5b5f8451116132f1576040517f08c379a00000000000000000000000000000000000000000000000000000000081526004016132e890614d78565b60405180910390fd5b602084511115613336576040517f08c379a000000000000000000000000000000000000000000000000000000000815260040161332d90614de0565b60405180910390fd5b5f6133428585856133e3565b905060015f9054906101000a900473ffffffffffffffffffffffffffffffffffffffff1673ffffffffffffffffffffffffffffffffffffffff1663a45f97176007335f896040518563ffffffff1660e01b81526004016133a594939291906149db565b5f604051808303815f87803b1580156133bc575f5ffd5b505af11580156133ce573d5f5f3e3d5ffd5b50505050809150509392505050565b60055481565b5f60055f8154809291906133f69061494e565b91905055505f60055490506040518060e0016040528082815260200186815260200185815260200184600281111561343157613430613939565b5b81526020013373ffffffffffffffffffffffffffffffffffffffff1681526020014281526020016001151581525060035f8381526020019081526020015f205f820151815f0155602082015181600101908161348d9190614852565b5060408201518160020190816134a39190614852565b506060820151816003015f6101000a81548160ff021916908360028111156134ce576134cd613939565b5b021790555060808201518160030160016101000a81548173ffffffffffffffffffffffffffffffffffffffff021916908373ffffffffffffffffffffffffffffffffffffffff16021790555060a0820151816004015560c0820151816005015f6101000a81548160ff0219169083151502179055509050503373ffffffffffffffffffffffffffffffffffffffff16817f250a126a5c1799f7e5570b1503a547ec7161836690155d552168f052675a018b874260405161358f929190614cd3565b60405180910390a3809150509392505050565b6040518060e001604052805f815260200160608152602001606081526020015f60028111156135d4576135d3613939565b5b81526020015f73ffffffffffffffffffffffffffffffffffffffff1681526020015f81526020015f151581525090565b5f604051905090565b5f5ffd5b5f5ffd5b5f819050919050565b61362781613615565b8114613631575f5ffd5b50565b5f813590506136428161361e565b92915050565b5f5ffd5b5f5ffd5b5f601f19601f8301169050919050565b7f4e487b71000000000000000000000000000000000000000000000000000000005f52604160045260245ffd5b61369682613650565b810181811067ffffffffffffffff821117156136b5576136b4613660565b5b80604052505050565b5f6136c7613604565b90506136d3828261368d565b919050565b5f67ffffffffffffffff8211156136f2576136f1613660565b5b6136fb82613650565b9050602081019050919050565b828183375f83830152505050565b5f613728613723846136d8565b6136be565b9050828152602081018484840111156137445761374361364c565b5b61374f848285613708565b509392505050565b5f82601f83011261376b5761376a613648565b5b813561377b848260208601613716565b91505092915050565b5f5f5f6060848603121561379b5761379a61360d565b5b5f6137a886828701613634565b935050602084013567ffffffffffffffff8111156137c9576137c8613611565b5b6137d586828701613757565b925050604084013567ffffffffffffffff8111156137f6576137f5613611565b5b61380286828701613757565b9150509250925092565b5f73ffffffffffffffffffffffffffffffffffffffff82169050919050565b5f819050919050565b5f61384e6138496138448461380c565b61382b565b61380c565b9050919050565b5f61385f82613834565b9050919050565b5f61387082613855565b9050919050565b61388081613866565b82525050565b5f6020820190506138995f830184613877565b92915050565b5f602082840312156138b4576138b361360d565b5b5f6138c184828501613634565b91505092915050565b6138d381613615565b82525050565b5f81519050919050565b5f82825260208201905092915050565b8281835e5f83830152505050565b5f61390b826138d9565b61391581856138e3565b93506139258185602086016138f3565b61392e81613650565b840191505092915050565b7f4e487b71000000000000000000000000000000000000000000000000000000005f52602160045260245ffd5b6003811061397757613976613939565b5b50565b5f81905061398782613966565b919050565b5f6139968261397a565b9050919050565b6139a68161398c565b82525050565b5f6139b68261380c565b9050919050565b6139c6816139ac565b82525050565b5f8115159050919050565b6139e0816139cc565b82525050565b5f60e083015f8301516139fb5f8601826138ca565b5060208301518482036020860152613a138282613901565b91505060408301518482036040860152613a2d8282613901565b9150506060830151613a42606086018261399d565b506080830151613a5560808601826139bd565b5060a0830151613a6860a08601826138ca565b5060c0830151613a7b60c08601826139d7565b508091505092915050565b5f6020820190508181035f830152613a9e81846139e6565b905092915050565b613aaf816139ac565b82525050565b5f602082019050613ac85f830184613aa6565b92915050565b613ad781613615565b82525050565b5f602082019050613af05f830184613ace565b92915050565b5f5f60408385031215613b0c57613b0b61360d565b5b5f613b1985828601613634565b925050602083013567ffffffffffffffff811115613b3a57613b39613611565b5b613b4685828601613757565b9150509250929050565b5f81519050919050565b5f82825260208201905092915050565b5f819050602082019050919050565b5f61012083015f830151613b8f5f8601826138ca565b506020830151613ba260208601826139bd565b5060408301518482036040860152613bba8282613901565b91505060608301518482036060860152613bd48282613901565b91505060808301518482036080860152613bee8282613901565b91505060a083015184820360a0860152613c088282613901565b91505060c0830151613c1d60c08601826139d7565b5060e0830151613c3060e08601826138ca565b50610100830151613c456101008601826138ca565b508091505092915050565b5f613c5b8383613b79565b905092915050565b5f602082019050919050565b5f613c7982613b50565b613c838185613b5a565b935083602082028501613c9585613b6a565b805f5b85811015613cd05784840389528151613cb18582613c50565b9450613cbc83613c63565b925060208a01995050600181019050613c98565b50829750879550505050505092915050565b5f6020820190508181035f830152613cfa8184613c6f565b905092915050565b5f82825260208201905092915050565b5f613d1c826138d9565b613d268185613d02565b9350613d368185602086016138f3565b613d3f81613650565b840191505092915050565b613d538161398c565b82525050565b613d62816139cc565b82525050565b5f60e082019050613d7b5f83018a613ace565b8181036020830152613d8d8189613d12565b90508181036040830152613da18188613d12565b9050613db06060830187613d4a565b613dbd6080830186613aa6565b613dca60a0830185613ace565b613dd760c0830184613d59565b98975050505050505050565b5f81519050919050565b5f82825260208201905092915050565b5f819050602082019050919050565b5f60e083015f830151613e215f8601826138ca565b5060208301518482036020860152613e398282613901565b91505060408301518482036040860152613e538282613901565b9150506060830151613e68606086018261399d565b506080830151613e7b60808601826139bd565b5060a0830151613e8e60a08601826138ca565b5060c0830151613ea160c08601826139d7565b508091505092915050565b5f613eb78383613e0c565b905092915050565b5f602082019050919050565b5f613ed582613de3565b613edf8185613ded565b935083602082028501613ef185613dfd565b805f5b85811015613f2c5784840389528151613f0d8582613eac565b9450613f1883613ebf565b925060208a01995050600181019050613ef4565b50829750879550505050505092915050565b5f6020820190508181035f830152613f568184613ecb565b905092915050565b5f5f60408385031215613f7457613f7361360d565b5b5f613f8185828601613634565b9250506020613f9285828601613634565b9150509250929050565b5f61012082019050613fb05f83018c613ace565b613fbd602083018b613aa6565b8181036040830152613fcf818a613d12565b90508181036060830152613fe38189613d12565b90508181036080830152613ff78188613d12565b905081810360a083015261400b8187613d12565b905061401a60c0830186613d59565b61402760e0830185613ace565b614035610100830184613ace565b9a9950505050505050505050565b5f61404d82613855565b9050919050565b61405d81614043565b82525050565b5f6020820190506140765f830184614054565b92915050565b60038110614088575f5ffd5b50565b5f813590506140998161407c565b92915050565b5f5f5f606084860312156140b6576140b561360d565b5b5f84013567ffffffffffffffff8111156140d3576140d2613611565b5b6140df86828701613757565b935050602084013567ffffffffffffffff811115614100576140ff613611565b5b61410c86828701613757565b925050604061411d8682870161408b565b9150509250925092565b614130816139cc565b811461413a575f5ffd5b50565b5f8151905061414b81614127565b92915050565b5f602082840312156141665761416561360d565b5b5f6141738482850161413d565b91505092915050565b7f596f75206d7573742062652072656769737465726564000000000000000000005f82015250565b5f6141b0601683613d02565b91506141bb8261417c565b602082019050919050565b5f6020820190508181035f8301526141dd816141a4565b9050919050565b7f596f75722077616c6c65742069732062616e6e656400000000000000000000005f82015250565b5f614218601583613d02565b9150614223826141e4565b602082019050919050565b5f6020820190508181035f8301526142458161420c565b9050919050565b7f4368616d62657220646f6573206e6f74206578697374000000000000000000005f82015250565b5f614280601683613d02565b915061428b8261424c565b602082019050919050565b5f6020820190508181035f8301526142ad81614274565b9050919050565b5f819050919050565b6142c6816142b4565b81146142d0575f5ffd5b50565b5f815190506142e1816142bd565b92915050565b5f602082840312156142fc576142fb61360d565b5b5f614309848285016142d3565b91505092915050565b61431b816142b4565b82525050565b5f6040820190506143345f830185614312565b6143416020830184613aa6565b9392505050565b7f417263686974656374206f6e6c790000000000000000000000000000000000005f82015250565b5f61437c600e83613d02565b915061438782614348565b602082019050919050565b5f6020820190508181035f8301526143a981614370565b9050919050565b7f477561726469616e7320616e6420417263686974656374206f6e6c79000000005f82015250565b5f6143e4601c83613d02565b91506143ef826143b0565b602082019050919050565b5f6020820190508181035f830152614411816143d8565b9050919050565b7f4349442063616e6e6f7420626520656d707479000000000000000000000000005f82015250565b5f61444c601383613d02565b915061445782614418565b602082019050919050565b5f6020820190508181035f83015261447981614440565b9050919050565b7f46696c65206e616d652063616e6e6f7420626520656d707479000000000000005f82015250565b5f6144b4601983613d02565b91506144bf82614480565b602082019050919050565b5f6020820190508181035f8301526144e1816144a8565b9050919050565b5f5ffd5b5f5ffd5b5f6145026144fd846136d8565b6136be565b90508281526020810184848401111561451e5761451d61364c565b5b6145298482856138f3565b509392505050565b5f82601f83011261454557614544613648565b5b81516145558482602086016144f0565b91505092915050565b5f8151905061456c8161361e565b92915050565b5f60a08284031215614587576145866144e8565b5b61459160a06136be565b90505f82015167ffffffffffffffff8111156145b0576145af6144ec565b5b6145bc84828501614531565b5f8301525060206145cf8482850161413d565b60208301525060406145e38482850161413d565b60408301525060606145f78482850161455e565b606083015250608061460b8482850161455e565b60808301525092915050565b5f6020828403121561462c5761462b61360d565b5b5f82015167ffffffffffffffff81111561464957614648613611565b5b61465584828501614572565b91505092915050565b7f4e487b71000000000000000000000000000000000000000000000000000000005f52602260045260245ffd5b5f60028204905060018216806146a257607f821691505b6020821081036146b5576146b461465e565b5b50919050565b5f819050815f5260205f209050919050565b5f6020601f8301049050919050565b5f82821b905092915050565b5f600883026147177fffffffffffffffffffffffffffffffffffffffffffffffffffffffffffffffff826146dc565b61472186836146dc565b95508019841693508086168417925050509392505050565b5f61475361474e61474984613615565b61382b565b613615565b9050919050565b5f819050919050565b61476c83614739565b6147806147788261475a565b8484546146e8565b825550505050565b5f5f905090565b614797614788565b6147a2818484614763565b505050565b5b818110156147c5576147ba5f8261478f565b6001810190506147a8565b5050565b601f82111561480a576147db816146bb565b6147e4846146cd565b810160208510156147f3578190505b6148076147ff856146cd565b8301826147a7565b50505b505050565b5f82821c905092915050565b5f61482a5f198460080261480f565b1980831691505092915050565b5f614842838361481b565b9150826002028217905092915050565b61485b826138d9565b67ffffffffffffffff81111561487457614873613660565b5b61487e825461468b565b6148898282856147c9565b5f60209050601f8311600181146148ba575f84156148a8578287015190505b6148b28582614837565b865550614919565b601f1984166148c8866146bb565b5f5b828110156148ef578489015182556001820191506020850194506020810190506148ca565b8683101561490c5784890151614908601f89168261481b565b8355505b6001600288020188555050505b505050505050565b7f4e487b71000000000000000000000000000000000000000000000000000000005f52601160045260245ffd5b5f61495882613615565b91507fffffffffffffffffffffffffffffffffffffffffffffffffffffffffffffffff820361498a57614989614921565b5b600182019050919050565b600b81106149a6576149a5613939565b5b50565b5f8190506149b682614995565b919050565b5f6149c5826149a9565b9050919050565b6149d5816149bb565b82525050565b5f6080820190506149ee5f8301876149cc565b6149fb6020830186613aa6565b614a086040830185613aa6565b8181036060830152614a1a8184613d12565b905095945050505050565b5f6060820190508181035f830152614a3d8186613d12565b90508181036020830152614a518185613d12565b9050614a606040830184613ace565b949350505050565b7f4f6e6c7920477561726469616e7320616e6420417263686974656374000000005f82015250565b5f614a9c601c83613d02565b9150614aa782614a68565b602082019050919050565b5f6020820190508181035f830152614ac981614a90565b9050919050565b7f4e6f7420796f7572206368616d626572000000000000000000000000000000005f82015250565b5f614b04601083613d02565b9150614b0f82614ad0565b602082019050919050565b5f6020820190508181035f830152614b3181614af8565b9050919050565b5f8154614b448161468b565b614b4e8186613d02565b9450600182165f8114614b685760018114614b7e57614bb0565b60ff198316865281151560200286019350614bb0565b614b87856146bb565b5f5b83811015614ba857815481890152600182019150602081019050614b89565b808801955050505b50505092915050565b5f608082019050614bcc5f8301876149cc565b614bd96020830186613aa6565b614be66040830185613aa6565b8181036060830152614bf88184614b38565b905095945050505050565b7f4d6573736167652063616e6e6f7420626520656d7074790000000000000000005f82015250565b5f614c37601783613d02565b9150614c4282614c03565b602082019050919050565b5f6020820190508181035f830152614c6481614c2b565b9050919050565b7f4d65737361676520746f6f206c6f6e67000000000000000000000000000000005f82015250565b5f614c9f601083613d02565b9150614caa82614c6b565b602082019050919050565b5f6020820190508181035f830152614ccc81614c93565b9050919050565b5f6040820190508181035f830152614ceb8185613d12565b9050614cfa6020830184613ace565b9392505050565b7f4e487b71000000000000000000000000000000000000000000000000000000005f52603260045260245ffd5b7f4e616d652063616e6e6f7420626520656d7074790000000000000000000000005f82015250565b5f614d62601483613d02565b9150614d6d82614d2e565b602082019050919050565b5f6020820190508181035f830152614d8f81614d56565b9050919050565b7f4e616d6520746f6f206c6f6e67000000000000000000000000000000000000005f82015250565b5f614dca600d83613d02565b9150614dd582614d96565b602082019050919050565b5f6020820190508181035f830152614df781614dbe565b905091905056fea2646970667358221220bf2722ae829e97b57e1d137c8b1209c84cbcc1f5d794289acb7a3558c0a396d264736f6c634300081c0033",
  "linkReferences": {},
  "deployedLinkReferences": {},
  "immutableReferences": {},
  "inputSourceName": "project/contracts/chambers.sol",
  "buildInfoId": "solc-0_8_28-d09a2590e00b8ef221bffe90bf59e1f7b80292db"
}