{
  "_format": "hh3-artifact-1",
  "contractName": "fileRegistry",
  "sourceName": "contracts/fileRegistry.sol",
  "abi": [
    {
      "inputs": [
        {
          "internalType": "address",
          "name": "_vaultRoom",
          "type": "address"
        }
      ],
      "stateMutability": "nonpayable",
      "type": "constructor"
    },
    {
      "anonymous": false,
      "inputs": [
        {
          "indexed": true,
          "internalType": "uint256",
          "name": "roomId",
          "type": "uint256"
        },
        {
          "indexed": true,
          "internalType": "address",
          "name": "uploader",
          "type": "address"
        },
        {
          "indexed": false,
          "internalType": "string",
          "name": "ipfsCID",
          "type": "string"
        },
        {
          "indexed": false,
          "internalType": "string",
          "name": "fileName",
          "type": "string"
        },
        {
          "indexed": false,
          "internalType": "uint256",
          "name": "timestamp",
          "type": "uint256"
        },
        {
          "indexed": false,
          "internalType": "uint256",
          "name": "blockNumber",
          "type": "uint256"
        }
      ],
      "name": "fileUploaded",
      "type": "event"
    },
    {
      "inputs": [
        {
          "internalType": "uint256",
          "name": "roomId",
          "type": "uint256"
        },
        {
          "internalType": "uint256",
          "name": "fileId",
          "type": "uint256"
        }
      ],
      "name": "getFile",
      "outputs": [
        {
          "components": [
            {
              "internalType": "uint256",
              "name": "id",
              "type": "uint256"
            },
            {
              "internalType": "uint256",
              "name": "roomId",
              "type": "uint256"
            },
            {
              "internalType": "address",
              "name": "uploader",
              "type": "address"
            },
            {
              "internalType": "string",
              "name": "ipfsCID",
              "type": "string"
            },
            {
              "internalType": "string",
              "name": "fileName",
              "type": "string"
            },
            {
              "internalType": "uint256",
              "name": "fileSize",
              "type": "uint256"
            },
            {
              "internalType": "uint256",
              "name": "uploadedAt",
              "type": "uint256"
            },
            {
              "internalType": "uint256",
              "name": "blockNumber",
              "type": "uint256"
            }
          ],
          "internalType": "struct fileRegistry.file",
          "name": "",
          "type": "tuple"
        }
      ],
      "stateMutability": "view",
      "type": "function"
    },
    {
      "inputs": [
        {
          "internalType": "uint256",
          "name": "roomId",
          "type": "uint256"
        }
      ],
      "name": "getFileCount",
      "outputs": [
        {
          "internalType": "uint256",
          "name": "",
          "type": "uint256"
        }
      ],
      "stateMutability": "view",
      "type": "function"
    },
    {
      "inputs": [
        {
          "internalType": "uint256",
          "name": "roomId",
          "type": "uint256"
        },
        {
          "internalType": "bytes32",
          "name": "keyHash",
          "type": "bytes32"
        }
      ],
      "name": "getFiles",
      "outputs": [
        {
          "components": [
            {
              "internalType": "uint256",
              "name": "id",
              "type": "uint256"
            },
            {
              "internalType": "uint256",
              "name": "roomId",
              "type": "uint256"
            },
            {
              "internalType": "address",
              "name": "uploader",
              "type": "address"
            },
            {
              "internalType": "string",
              "name": "ipfsCID",
              "type": "string"
            },
            {
              "internalType": "string",
              "name": "fileName",
              "type": "string"
            },
            {
              "internalType": "uint256",
              "name": "fileSize",
              "type": "uint256"
            },
            {
              "internalType": "uint256",
              "name": "uploadedAt",
              "type": "uint256"
            },
            {
              "internalType": "uint256",
              "name": "blockNumber",
              "type": "uint256"
            }
          ],
          "internalType": "struct fileRegistry.file[]",
          "name": "",
          "type": "tuple[]"
        }
      ],
      "stateMutability": "view",
      "type": "function"
    },
    {
      "inputs": [
        {
          "internalType": "uint256",
          "name": "",
          "type": "uint256"
        },
        {
          "internalType": "uint256",
          "name": "",
          "type": "uint256"
        }
      ],
      "name": "roomFiles",
      "outputs": [
        {
          "internalType": "uint256",
          "name": "id",
          "type": "uint256"
        },
        {
          "internalType": "uint256",
          "name": "roomId",
          "type": "uint256"
        },
        {
          "internalType": "address",
          "name": "uploader",
          "type": "address"
        },
        {
          "internalType": "string",
          "name": "ipfsCID",
          "type": "string"
        },
        {
          "internalType": "string",
          "name": "fileName",
          "type": "string"
        },
        {
          "internalType": "uint256",
          "name": "fileSize",
          "type": "uint256"
        },
        {
          "internalType": "uint256",
          "name": "uploadedAt",
          "type": "uint256"
        },
        {
          "internalType": "uint256",
          "name": "blockNumber",
          "type": "uint256"
        }
      ],
      "stateMutability": "view",
      "type": "function"
    },
    {
      "inputs": [],
      "name": "totalFiles",
      "outputs": [
        {
          "internalType": "uint256",
          "name": "",
          "type": "uint256"
        }
      ],
      "stateMutability": "view",
      "type": "function"
    },
    {
      "inputs": [
        {
          "internalType": "uint256",
          "name": "roomId",
          "type": "uint256"
        },
        {
          "internalType": "bytes32",
          "name": "keyHash",
          "type": "bytes32"
        },
        {
          "internalType": "string",
          "name": "ipfsCID",
          "type": "string"
        },
        {
          "internalType": "string",
          "name": "fileName",
          "type": "string"
        },
        {
          "internalType": "uint256",
          "name": "fileSize",
          "type": "uint256"
        }
      ],
      "name": "uploadFile",
      "outputs": [
        {
          "internalType": "uint256",
          "name": "",
          "type": "uint256"
        }
      ],
      "stateMutability": "nonpayable",
      "type": "function"
    },
    {
      "inputs": [],
      "name": "vaultRoomContract",
      "outputs": [
        {
          "internalType": "contract vaultRoom",
          "name": "",
          "type": "address"
        }
      ],
      "stateMutability": "view",
      "type": "function"
    },
    {
      "inputs": [
        {
          "internalType": "uint256",
          "name": "roomId",
          "type": "uint256"
        },
        {
          "internalType": "uint256",
          "name": "fileId",
          "type": "uint256"
        },
        {
          "internalType": "string",
          "name": "ipfsCID",
          "type": "string"
        }
      ],
      "name": "verifyFile",
      "outputs": [
        {
          "internalType": "bool",
          "name": "",
          "type": "bool"
        }
      ],
      "stateMutability": "view",
      "type": "function"
    }
  ],
  "bytecode": "0x608060405234801561000f575f5ffd5b50604051612301380380612301833981810160405281019061003191906100d4565b805f5f6101000a81548173ffffffffffffffffffffffffffffffffffffffff021916908373ffffffffffffffffffffffffffffffffffffffff160217905550506100ff565b5f5ffd5b5f73ffffffffffffffffffffffffffffffffffffffff82169050919050565b5f6100a38261007a565b9050919050565b6100b381610099565b81146100bd575f5ffd5b50565b5f815190506100ce816100aa565b92915050565b5f602082840312156100e9576100e8610076565b5b5f6100f6848285016100c0565b91505092915050565b6121f58061010c5f395ff3fe608060405234801561000f575f5ffd5b5060043610610086575f3560e01c8063a0e41a7711610059578063a0e41a7714610126578063b5b52b5e14610156578063cb350b2f1461018d578063f73dcbdf146101bd57610086565b80633b653a8e1461008a5780635c0f2b2a146100a8578063761805e5146100d857806392cf055714610108575b5f5ffd5b6100926101ed565b60405161009f9190611030565b60405180910390f35b6100c260048036038101906100bd91906110c0565b610211565b6040516100cf919061130c565b60405180910390f35b6100f260048036038101906100ed919061132c565b6105e4565b6040516100ff9190611366565b60405180910390f35b610110610601565b60405161011d9190611366565b60405180910390f35b610140600480360381019061013b919061137f565b610607565b60405161014d9190611471565b60405180910390f35b610170600480360381019061016b919061137f565b61084e565b6040516101849897969594939291906114e8565b60405180910390f35b6101a760048036038101906101a2919061169e565b6109d7565b6040516101b49190611366565b60405180910390f35b6101d760048036038101906101d2919061174d565b610eb1565b6040516101e491906117d3565b60405180910390f35b5f5f9054906101000a900473ffffffffffffffffffffffffffffffffffffffff1681565b60605f5f5f9054906101000a900473ffffffffffffffffffffffffffffffffffffffff1673ffffffffffffffffffffffffffffffffffffffff16636d8a74cb856040518263ffffffff1660e01b815260040161026d9190611366565b5f60405180830381865afa158015610287573d5f5f3e3d5ffd5b505050506040513d5f823e3d601f19601f820116820180604052508101906102af91906119c1565b9050828160400151146102f7576040517f08c379a00000000000000000000000000000000000000000000000000000000081526004016102ee90611a52565b60405180910390fd5b5f5f9054906101000a900473ffffffffffffffffffffffffffffffffffffffff1673ffffffffffffffffffffffffffffffffffffffff16637d9e10f585336040518363ffffffff1660e01b8152600401610352929190611a70565b602060405180830381865afa15801561036d573d5f5f3e3d5ffd5b505050506040513d601f19601f820116820180604052508101906103919190611a97565b6103d0576040517f08c379a00000000000000000000000000000000000000000000000000000000081526004016103c790611b0c565b60405180910390fd5b60015f8581526020019081526020015f20805480602002602001604051908101604052809291908181526020015f905b828210156105d7578382905f5260205f209060080201604051806101000160405290815f820154815260200160018201548152602001600282015f9054906101000a900473ffffffffffffffffffffffffffffffffffffffff1673ffffffffffffffffffffffffffffffffffffffff1673ffffffffffffffffffffffffffffffffffffffff16815260200160038201805461049a90611b57565b80601f01602080910402602001604051908101604052809291908181526020018280546104c690611b57565b80156105115780601f106104e857610100808354040283529160200191610511565b820191905f5260205f20905b8154815290600101906020018083116104f457829003601f168201915b5050505050815260200160048201805461052a90611b57565b80601f016020809104026020016040519081016040528092919081815260200182805461055690611b57565b80156105a15780601f10610578576101008083540402835291602001916105a1565b820191905f5260205f20905b81548152906001019060200180831161058457829003601f168201915b50505050508152602001600582015481526020016006820154815260200160078201548152505081526020019060010190610400565b5050505091505092915050565b5f60015f8381526020019081526020015f20805490509050919050565b60025481565b61060f610f61565b60015f8481526020019081526020015f20805490508210610665576040517f08c379a000000000000000000000000000000000000000000000000000000000815260040161065c90611bd1565b60405180910390fd5b60015f8481526020019081526020015f20828154811061068857610687611bef565b5b905f5260205f209060080201604051806101000160405290815f820154815260200160018201548152602001600282015f9054906101000a900473ffffffffffffffffffffffffffffffffffffffff1673ffffffffffffffffffffffffffffffffffffffff1673ffffffffffffffffffffffffffffffffffffffff16815260200160038201805461071890611b57565b80601f016020809104026020016040519081016040528092919081815260200182805461074490611b57565b801561078f5780601f106107665761010080835404028352916020019161078f565b820191905f5260205f20905b81548152906001019060200180831161077257829003601f168201915b505050505081526020016004820180546107a890611b57565b80601f01602080910402602001604051908101604052809291908181526020018280546107d490611b57565b801561081f5780601f106107f65761010080835404028352916020019161081f565b820191905f5260205f20905b81548152906001019060200180831161080257829003601f168201915b505050505081526020016005820154815260200160068201548152602001600782015481525050905092915050565b6001602052815f5260405f208181548110610867575f80fd5b905f5260205f2090600802015f9150915050805f015490806001015490806002015f9054906101000a900473ffffffffffffffffffffffffffffffffffffffff16908060030180546108b890611b57565b80601f01602080910402602001604051908101604052809291908181526020018280546108e490611b57565b801561092f5780601f106109065761010080835404028352916020019161092f565b820191905f5260205f20905b81548152906001019060200180831161091257829003601f168201915b50505050509080600401805461094490611b57565b80601f016020809104026020016040519081016040528092919081815260200182805461097090611b57565b80156109bb5780601f10610992576101008083540402835291602001916109bb565b820191905f5260205f20905b81548152906001019060200180831161099e57829003601f168201915b5050505050908060050154908060060154908060070154905088565b5f5f5f9054906101000a900473ffffffffffffffffffffffffffffffffffffffff1673ffffffffffffffffffffffffffffffffffffffff16637d9e10f587336040518363ffffffff1660e01b8152600401610a33929190611a70565b602060405180830381865afa158015610a4e573d5f5f3e3d5ffd5b505050506040513d601f19601f82011682018060405250810190610a729190611a97565b610ab1576040517f08c379a0000000000000000000000000000000000000000000000000000000008152600401610aa890611c66565b60405180910390fd5b5f5f9054906101000a900473ffffffffffffffffffffffffffffffffffffffff1673ffffffffffffffffffffffffffffffffffffffff1663754cc47087336040518363ffffffff1660e01b8152600401610b0c929190611a70565b602060405180830381865afa158015610b27573d5f5f3e3d5ffd5b505050506040513d601f19601f82011682018060405250810190610b4b9190611a97565b610b8a576040517f08c379a0000000000000000000000000000000000000000000000000000000008152600401610b8190611cf4565b60405180910390fd5b5f845111610bcd576040517f08c379a0000000000000000000000000000000000000000000000000000000008152600401610bc490611d5c565b60405180910390fd5b5f835111610c10576040517f08c379a0000000000000000000000000000000000000000000000000000000008152600401610c0790611dc4565b60405180910390fd5b5f5f5f9054906101000a900473ffffffffffffffffffffffffffffffffffffffff1673ffffffffffffffffffffffffffffffffffffffff16636d8a74cb886040518263ffffffff1660e01b8152600401610c6a9190611366565b5f60405180830381865afa158015610c84573d5f5f3e3d5ffd5b505050506040513d5f823e3d601f19601f82011682018060405250810190610cac91906119c1565b905085816040015114610cf4576040517f08c379a0000000000000000000000000000000000000000000000000000000008152600401610ceb90611a52565b60405180910390fd5b5f60015f8981526020019081526020015f2080549050905060015f8981526020019081526020015f206040518061010001604052808381526020018a81526020013373ffffffffffffffffffffffffffffffffffffffff16815260200188815260200187815260200186815260200142815260200143815250908060018154018082558091505060019003905f5260205f2090600802015f909190919091505f820151815f0155602082015181600101556040820151816002015f6101000a81548173ffffffffffffffffffffffffffffffffffffffff021916908373ffffffffffffffffffffffffffffffffffffffff1602179055506060820151816003019081610e009190611f79565b506080820151816004019081610e169190611f79565b5060a0820151816005015560c0820151816006015560e08201518160070155505060025f815480929190610e4990612075565b91905055503373ffffffffffffffffffffffffffffffffffffffff16887f06f11bf23128cff39cacea08cd29eff639dd1e38706d371fb8d2b9e3e18e23c988884243604051610e9b94939291906120bc565b60405180910390a3809250505095945050505050565b5f60015f8581526020019081526020015f20805490508310610f08576040517f08c379a0000000000000000000000000000000000000000000000000000000008152600401610eff90611bd1565b60405180910390fd5b818051906020012060015f8681526020019081526020015f208481548110610f3357610f32611bef565b5b905f5260205f209060080201600301604051610f4f91906121a9565b60405180910390201490509392505050565b6040518061010001604052805f81526020015f81526020015f73ffffffffffffffffffffffffffffffffffffffff16815260200160608152602001606081526020015f81526020015f81526020015f81525090565b5f73ffffffffffffffffffffffffffffffffffffffff82169050919050565b5f819050919050565b5f610ff8610ff3610fee84610fb6565b610fd5565b610fb6565b9050919050565b5f61100982610fde565b9050919050565b5f61101a82610fff565b9050919050565b61102a81611010565b82525050565b5f6020820190506110435f830184611021565b92915050565b5f604051905090565b5f5ffd5b5f5ffd5b5f819050919050565b61106c8161105a565b8114611076575f5ffd5b50565b5f8135905061108781611063565b92915050565b5f819050919050565b61109f8161108d565b81146110a9575f5ffd5b50565b5f813590506110ba81611096565b92915050565b5f5f604083850312156110d6576110d5611052565b5b5f6110e385828601611079565b92505060206110f4858286016110ac565b9150509250929050565b5f81519050919050565b5f82825260208201905092915050565b5f819050602082019050919050565b6111308161105a565b82525050565b5f61114082610fb6565b9050919050565b61115081611136565b82525050565b5f81519050919050565b5f82825260208201905092915050565b8281835e5f83830152505050565b5f601f19601f8301169050919050565b5f61119882611156565b6111a28185611160565b93506111b2818560208601611170565b6111bb8161117e565b840191505092915050565b5f61010083015f8301516111dc5f860182611127565b5060208301516111ef6020860182611127565b5060408301516112026040860182611147565b506060830151848203606086015261121a828261118e565b91505060808301518482036080860152611234828261118e565b91505060a083015161124960a0860182611127565b5060c083015161125c60c0860182611127565b5060e083015161126f60e0860182611127565b508091505092915050565b5f61128583836111c6565b905092915050565b5f602082019050919050565b5f6112a3826110fe565b6112ad8185611108565b9350836020820285016112bf85611118565b805f5b858110156112fa57848403895281516112db858261127a565b94506112e68361128d565b925060208a019950506001810190506112c2565b50829750879550505050505092915050565b5f6020820190508181035f8301526113248184611299565b905092915050565b5f6020828403121561134157611340611052565b5b5f61134e84828501611079565b91505092915050565b6113608161105a565b82525050565b5f6020820190506113795f830184611357565b92915050565b5f5f6040838503121561139557611394611052565b5b5f6113a285828601611079565b92505060206113b385828601611079565b9150509250929050565b5f61010083015f8301516113d35f860182611127565b5060208301516113e66020860182611127565b5060408301516113f96040860182611147565b5060608301518482036060860152611411828261118e565b9150506080830151848203608086015261142b828261118e565b91505060a083015161144060a0860182611127565b5060c083015161145360c0860182611127565b5060e083015161146660e0860182611127565b508091505092915050565b5f6020820190508181035f83015261148981846113bd565b905092915050565b61149a81611136565b82525050565b5f82825260208201905092915050565b5f6114ba82611156565b6114c481856114a0565b93506114d4818560208601611170565b6114dd8161117e565b840191505092915050565b5f610100820190506114fc5f83018b611357565b611509602083018a611357565b6115166040830189611491565b818103606083015261152881886114b0565b9050818103608083015261153c81876114b0565b905061154b60a0830186611357565b61155860c0830185611357565b61156560e0830184611357565b9998505050505050505050565b5f5ffd5b5f5ffd5b7f4e487b71000000000000000000000000000000000000000000000000000000005f52604160045260245ffd5b6115b08261117e565b810181811067ffffffffffffffff821117156115cf576115ce61157a565b5b80604052505050565b5f6115e1611049565b90506115ed82826115a7565b919050565b5f67ffffffffffffffff82111561160c5761160b61157a565b5b6116158261117e565b9050602081019050919050565b828183375f83830152505050565b5f61164261163d846115f2565b6115d8565b90508281526020810184848401111561165e5761165d611576565b5b611669848285611622565b509392505050565b5f82601f83011261168557611684611572565b5b8135611695848260208601611630565b91505092915050565b5f5f5f5f5f60a086880312156116b7576116b6611052565b5b5f6116c488828901611079565b95505060206116d5888289016110ac565b945050604086013567ffffffffffffffff8111156116f6576116f5611056565b5b61170288828901611671565b935050606086013567ffffffffffffffff81111561172357611722611056565b5b61172f88828901611671565b925050608061174088828901611079565b9150509295509295909350565b5f5f5f6060848603121561176457611763611052565b5b5f61177186828701611079565b935050602061178286828701611079565b925050604084013567ffffffffffffffff8111156117a3576117a2611056565b5b6117af86828701611671565b9150509250925092565b5f8115159050919050565b6117cd816117b9565b82525050565b5f6020820190506117e65f8301846117c4565b92915050565b5f5ffd5b5f5ffd5b5f8151905061180281611063565b92915050565b5f61181a611815846115f2565b6115d8565b90508281526020810184848401111561183657611835611576565b5b611841848285611170565b509392505050565b5f82601f83011261185d5761185c611572565b5b815161186d848260208601611808565b91505092915050565b5f8151905061188481611096565b92915050565b61189381611136565b811461189d575f5ffd5b50565b5f815190506118ae8161188a565b92915050565b6118bd816117b9565b81146118c7575f5ffd5b50565b5f815190506118d8816118b4565b92915050565b5f61010082840312156118f4576118f36117ec565b5b6118ff6101006115d8565b90505f61190e848285016117f4565b5f83015250602082015167ffffffffffffffff811115611931576119306117f0565b5b61193d84828501611849565b602083015250604061195184828501611876565b6040830152506060611965848285016118a0565b6060830152506080611979848285016117f4565b60808301525060a061198d848285016117f4565b60a08301525060c06119a1848285016118ca565b60c08301525060e06119b5848285016118ca565b60e08301525092915050565b5f602082840312156119d6576119d5611052565b5b5f82015167ffffffffffffffff8111156119f3576119f2611056565b5b6119ff848285016118de565b91505092915050565b7f496e76616c6964206b65790000000000000000000000000000000000000000005f82015250565b5f611a3c600b836114a0565b9150611a4782611a08565b602082019050919050565b5f6020820190508181035f830152611a6981611a30565b9050919050565b5f604082019050611a835f830185611357565b611a906020830184611491565b9392505050565b5f60208284031215611aac57611aab611052565b5b5f611ab9848285016118ca565b91505092915050565b7f4e6f742061206d656d62657200000000000000000000000000000000000000005f82015250565b5f611af6600c836114a0565b9150611b0182611ac2565b602082019050919050565b5f6020820190508181035f830152611b2381611aea565b9050919050565b7f4e487b71000000000000000000000000000000000000000000000000000000005f52602260045260245ffd5b5f6002820490506001821680611b6e57607f821691505b602082108103611b8157611b80611b2a565b5b50919050565b7f46696c6520646f6573206e6f74206578697374000000000000000000000000005f82015250565b5f611bbb6013836114a0565b9150611bc682611b87565b602082019050919050565b5f6020820190508181035f830152611be881611baf565b9050919050565b7f4e487b71000000000000000000000000000000000000000000000000000000005f52603260045260245ffd5b7f4e6f742061206d656d626572206f66207468697320726f6f6d000000000000005f82015250565b5f611c506019836114a0565b9150611c5b82611c1c565b602082019050919050565b5f6020820190508181035f830152611c7d81611c44565b9050919050565b7f596f7520646f206e6f7420686176652075706c6f6164207065726d697373696f5f8201527f6e00000000000000000000000000000000000000000000000000000000000000602082015250565b5f611cde6021836114a0565b9150611ce982611c84565b604082019050919050565b5f6020820190508181035f830152611d0b81611cd2565b9050919050565b7f4349442063616e6e6f7420626520656d707479000000000000000000000000005f82015250565b5f611d466013836114a0565b9150611d5182611d12565b602082019050919050565b5f6020820190508181035f830152611d7381611d3a565b9050919050565b7f46696c65206e616d652063616e6e6f7420626520656d707479000000000000005f82015250565b5f611dae6019836114a0565b9150611db982611d7a565b602082019050919050565b5f6020820190508181035f830152611ddb81611da2565b9050919050565b5f819050815f5260205f209050919050565b5f6020601f8301049050919050565b5f82821b905092915050565b5f60088302611e3e7fffffffffffffffffffffffffffffffffffffffffffffffffffffffffffffffff82611e03565b611e488683611e03565b95508019841693508086168417925050509392505050565b5f611e7a611e75611e708461105a565b610fd5565b61105a565b9050919050565b5f819050919050565b611e9383611e60565b611ea7611e9f82611e81565b848454611e0f565b825550505050565b5f5f905090565b611ebe611eaf565b611ec9818484611e8a565b505050565b5b81811015611eec57611ee15f82611eb6565b600181019050611ecf565b5050565b601f821115611f3157611f0281611de2565b611f0b84611df4565b81016020851015611f1a578190505b611f2e611f2685611df4565b830182611ece565b50505b505050565b5f82821c905092915050565b5f611f515f1984600802611f36565b1980831691505092915050565b5f611f698383611f42565b9150826002028217905092915050565b611f8282611156565b67ffffffffffffffff811115611f9b57611f9a61157a565b5b611fa58254611b57565b611fb0828285611ef0565b5f60209050601f831160018114611fe1575f8415611fcf578287015190505b611fd98582611f5e565b865550612040565b601f198416611fef86611de2565b5f5b8281101561201657848901518255600182019150602085019450602081019050611ff1565b86831015612033578489015161202f601f891682611f42565b8355505b6001600288020188555050505b505050505050565b7f4e487b71000000000000000000000000000000000000000000000000000000005f52601160045260245ffd5b5f61207f8261105a565b91507fffffffffffffffffffffffffffffffffffffffffffffffffffffffffffffffff82036120b1576120b0612048565b5b600182019050919050565b5f6080820190508181035f8301526120d481876114b0565b905081810360208301526120e881866114b0565b90506120f76040830185611357565b6121046060830184611357565b95945050505050565b5f81905092915050565b5f819050815f5260205f209050919050565b5f815461213581611b57565b61213f818661210d565b9450600182165f8114612159576001811461216e576121a0565b60ff19831686528115158202860193506121a0565b61217785612117565b5f5b8381101561219857815481890152600182019150602081019050612179565b838801955050505b50505092915050565b5f6121b48284612129565b91508190509291505056fea26469706673582212203eff6da26d5db6eb1dc098ce496104002abf25ab7c99e573ddb02a239862621464736f6c634300081c0033",
  "linkReferences": {},
  "deployedLinkReferences": {},
  "immutableReferences": {},
  "inputSourceName": "project/contracts/fileRegistry.sol",
  "buildInfoId": "solc-0_8_28-880c705dfe58d56c190d21450759f48a5fd06f22"
}