{
  "_format": "hh3-artifact-1",
  "contractName": "trustScore",
  "sourceName": "contracts/trustScore.sol",
  "abi": [
    {
      "inputs": [
        {
          "internalType": "address",
          "name": "_registry",
          "type": "address"
        }
      ],
      "stateMutability": "nonpayable",
      "type": "constructor"
    },
    {
      "anonymous": false,
      "inputs": [
        {
          "indexed": true,
          "internalType": "address",
          "name": "wallet",
          "type": "address"
        },
        {
          "indexed": false,
          "internalType": "uint256",
          "name": "points",
          "type": "uint256"
        },
        {
          "indexed": false,
          "internalType": "string",
          "name": "reason",
          "type": "string"
        },
        {
          "indexed": false,
          "internalType": "uint256",
          "name": "newTotal",
          "type": "uint256"
        }
      ],
      "name": "pointsAdded",
      "type": "event"
    },
    {
      "anonymous": false,
      "inputs": [
        {
          "indexed": true,
          "internalType": "address",
          "name": "wallet",
          "type": "address"
        },
        {
          "indexed": false,
          "internalType": "uint256",
          "name": "points",
          "type": "uint256"
        },
        {
          "indexed": false,
          "internalType": "string",
          "name": "reason",
          "type": "string"
        },
        {
          "indexed": false,
          "internalType": "uint256",
          "name": "newTotal",
          "type": "uint256"
        }
      ],
      "name": "pointsDeducted",
      "type": "event"
    },
    {
      "inputs": [
        {
          "internalType": "address",
          "name": "wallet",
          "type": "address"
        },
        {
          "internalType": "uint256",
          "name": "points",
          "type": "uint256"
        },
        {
          "internalType": "string",
          "name": "reason",
          "type": "string"
        }
      ],
      "name": "addPoints",
      "outputs": [],
      "stateMutability": "nonpayable",
      "type": "function"
    },
    {
      "inputs": [
        {
          "internalType": "address",
          "name": "wallet",
          "type": "address"
        },
        {
          "internalType": "uint256",
          "name": "points",
          "type": "uint256"
        },
        {
          "internalType": "string",
          "name": "reason",
          "type": "string"
        }
      ],
      "name": "deductPoints",
      "outputs": [],
      "stateMutability": "nonpayable",
      "type": "function"
    },
    {
      "inputs": [
        {
          "internalType": "address",
          "name": "wallet",
          "type": "address"
        }
      ],
      "name": "getAgentHistory",
      "outputs": [
        {
          "components": [
            {
              "internalType": "address",
              "name": "wallet",
              "type": "address"
            },
            {
              "internalType": "uint256",
              "name": "points",
              "type": "uint256"
            },
            {
              "internalType": "bool",
              "name": "isAddition",
              "type": "bool"
            },
            {
              "internalType": "string",
              "name": "reason",
              "type": "string"
            },
            {
              "internalType": "uint256",
              "name": "timestamp",
              "type": "uint256"
            }
          ],
          "internalType": "struct trustScore.scoreEvent[]",
          "name": "",
          "type": "tuple[]"
        }
      ],
      "stateMutability": "view",
      "type": "function"
    },
    {
      "inputs": [
        {
          "internalType": "address",
          "name": "wallet",
          "type": "address"
        }
      ],
      "name": "getLevel",
      "outputs": [
        {
          "internalType": "uint256",
          "name": "",
          "type": "uint256"
        }
      ],
      "stateMutability": "view",
      "type": "function"
    },
    {
      "inputs": [
        {
          "internalType": "address",
          "name": "wallet",
          "type": "address"
        }
      ],
      "name": "getScore",
      "outputs": [
        {
          "internalType": "uint256",
          "name": "",
          "type": "uint256"
        }
      ],
      "stateMutability": "view",
      "type": "function"
    },
    {
      "inputs": [
        {
          "internalType": "uint256",
          "name": "",
          "type": "uint256"
        }
      ],
      "name": "history",
      "outputs": [
        {
          "internalType": "address",
          "name": "wallet",
          "type": "address"
        },
        {
          "internalType": "uint256",
          "name": "points",
          "type": "uint256"
        },
        {
          "internalType": "bool",
          "name": "isAddition",
          "type": "bool"
        },
        {
          "internalType": "string",
          "name": "reason",
          "type": "string"
        },
        {
          "internalType": "uint256",
          "name": "timestamp",
          "type": "uint256"
        }
      ],
      "stateMutability": "view",
      "type": "function"
    },
    {
      "inputs": [],
      "name": "owner",
      "outputs": [
        {
          "internalType": "address",
          "name": "",
          "type": "address"
        }
      ],
      "stateMutability": "view",
      "type": "function"
    },
    {
      "inputs": [],
      "name": "registry",
      "outputs": [
        {
          "internalType": "contract vaultRegistry",
          "name": "",
          "type": "address"
        }
      ],
      "stateMutability": "view",
      "type": "function"
    }
  ],
  "bytecode": "0x608060405234801561000f575f5ffd5b50604051611e6c380380611e6c83398181016040528101906100319190610114565b805f5f6101000a81548173ffffffffffffffffffffffffffffffffffffffff021916908373ffffffffffffffffffffffffffffffffffffffff1602179055503360015f6101000a81548173ffffffffffffffffffffffffffffffffffffffff021916908373ffffffffffffffffffffffffffffffffffffffff1602179055505061013f565b5f5ffd5b5f73ffffffffffffffffffffffffffffffffffffffff82169050919050565b5f6100e3826100ba565b9050919050565b6100f3816100d9565b81146100fd575f5ffd5b50565b5f8151905061010e816100ea565b92915050565b5f60208284031215610129576101286100b6565b5b5f61013684828501610100565b91505092915050565b611d208061014c5f395ff3fe608060405234801561000f575f5ffd5b5060043610610086575f3560e01c80638da5cb5b116100595780638da5cb5b146101245780639b465f6f14610142578063a7a38f0b1461015e578063d47875d01461019257610086565b8063454834eb1461008a57806361b65f30146100ba5780637b103999146100d6578063817c8966146100f4575b5f5ffd5b6100a4600480360381019061009f91906110df565b6101c2565b6040516100b191906112e9565b60405180910390f35b6100d460048036038101906100cf919061145f565b610444565b005b6100de610966565b6040516100eb9190611526565b60405180910390f35b61010e600480360381019061010991906110df565b61098a565b60405161011b919061154e565b60405180910390f35b61012c610a2a565b6040516101399190611576565b60405180910390f35b61015c6004803603810190610157919061145f565b610a4f565b005b6101786004803603810190610173919061158f565b610e98565b604051610189959493929190611611565b60405180910390f35b6101ac60048036038101906101a791906110df565b610f8a565b6040516101b9919061154e565b60405180910390f35b60605f60035f8473ffffffffffffffffffffffffffffffffffffffff1673ffffffffffffffffffffffffffffffffffffffff1681526020019081526020015f2080548060200260200160405190810160405280929190818152602001828054801561024a57602002820191905f5260205f20905b815481526020019060010190808311610236575b505050505090505f815167ffffffffffffffff81111561026d5761026c61133b565b5b6040519080825280602002602001820160405280156102a657816020015b610293611031565b81526020019060019003908161028b5790505b5090505f5f90505b82518110156104395760028382815181106102cc576102cb611669565b5b6020026020010151815481106102e5576102e4611669565b5b905f5260205f2090600502016040518060a00160405290815f82015f9054906101000a900473ffffffffffffffffffffffffffffffffffffffff1673ffffffffffffffffffffffffffffffffffffffff1673ffffffffffffffffffffffffffffffffffffffff16815260200160018201548152602001600282015f9054906101000a900460ff16151515158152602001600382018054610384906116c3565b80601f01602080910402602001604051908101604052809291908181526020018280546103b0906116c3565b80156103fb5780601f106103d2576101008083540402835291602001916103fb565b820191905f5260205f20905b8154815290600101906020018083116103de57829003601f168201915b5050505050815260200160048201548152505082828151811061042157610420611669565b5b602002602001018190525080806001019150506102ae565b508092505050919050565b60015f9054906101000a900473ffffffffffffffffffffffffffffffffffffffff1673ffffffffffffffffffffffffffffffffffffffff163373ffffffffffffffffffffffffffffffffffffffff16146104d3576040517f08c379a00000000000000000000000000000000000000000000000000000000081526004016104ca9061173d565b60405180910390fd5b5f5f9054906101000a900473ffffffffffffffffffffffffffffffffffffffff1673ffffffffffffffffffffffffffffffffffffffff1663c3c5a547846040518263ffffffff1660e01b815260040161052c9190611576565b602060405180830381865afa158015610547573d5f5f3e3d5ffd5b505050506040513d601f19601f8201168201806040525081019061056b9190611785565b6105aa576040517f08c379a00000000000000000000000000000000000000000000000000000000081526004016105a1906117fa565b60405180910390fd5b5f5f9054906101000a900473ffffffffffffffffffffffffffffffffffffffff1673ffffffffffffffffffffffffffffffffffffffff1663e16c0652846040518263ffffffff1660e01b81526004016106039190611576565b602060405180830381865afa15801561061e573d5f5f3e3d5ffd5b505050506040513d601f19601f820116820180604052508101906106429190611785565b15610682576040517f08c379a000000000000000000000000000000000000000000000000000000000815260040161067990611862565b60405180910390fd5b5f5f9054906101000a900473ffffffffffffffffffffffffffffffffffffffff1673ffffffffffffffffffffffffffffffffffffffff16630868395184846040518363ffffffff1660e01b81526004016106dd929190611880565b5f604051808303815f87803b1580156106f4575f5ffd5b505af1158015610706573d5f5f3e3d5ffd5b505050505f600280549050905060026040518060a001604052808673ffffffffffffffffffffffffffffffffffffffff16815260200185815260200160011515815260200184815260200142815250908060018154018082558091505060019003905f5260205f2090600502015f909190919091505f820151815f015f6101000a81548173ffffffffffffffffffffffffffffffffffffffff021916908373ffffffffffffffffffffffffffffffffffffffff160217905550602082015181600101556040820151816002015f6101000a81548160ff02191690831515021790555060608201518160030190816107fd9190611a3e565b5060808201518160040155505060035f8573ffffffffffffffffffffffffffffffffffffffff1673ffffffffffffffffffffffffffffffffffffffff1681526020019081526020015f2081908060018154018082558091505060019003905f5260205f20015f90919091909150555f5f5f9054906101000a900473ffffffffffffffffffffffffffffffffffffffff1673ffffffffffffffffffffffffffffffffffffffff1663fb3551ff866040518263ffffffff1660e01b81526004016108c59190611576565b5f60405180830381865afa1580156108df573d5f5f3e3d5ffd5b505050506040513d5f823e3d601f19601f820116820180604052508101906109079190611c3c565b6080015190508473ffffffffffffffffffffffffffffffffffffffff167f6964bceb51e58a58fac7bebf03012c8bf533339ca23f37166d0dcb7ed8b699c185858460405161095793929190611c83565b60405180910390a25050505050565b5f5f9054906101000a900473ffffffffffffffffffffffffffffffffffffffff1681565b5f5f5f9054906101000a900473ffffffffffffffffffffffffffffffffffffffff1673ffffffffffffffffffffffffffffffffffffffff16636a4b783d836040518263ffffffff1660e01b81526004016109e49190611576565b602060405180830381865afa1580156109ff573d5f5f3e3d5ffd5b505050506040513d601f19601f82011682018060405250810190610a239190611cbf565b9050919050565b60015f9054906101000a900473ffffffffffffffffffffffffffffffffffffffff1681565b60015f9054906101000a900473ffffffffffffffffffffffffffffffffffffffff1673ffffffffffffffffffffffffffffffffffffffff163373ffffffffffffffffffffffffffffffffffffffff1614610ade576040517f08c379a0000000000000000000000000000000000000000000000000000000008152600401610ad59061173d565b60405180910390fd5b5f5f9054906101000a900473ffffffffffffffffffffffffffffffffffffffff1673ffffffffffffffffffffffffffffffffffffffff1663c3c5a547846040518263ffffffff1660e01b8152600401610b379190611576565b602060405180830381865afa158015610b52573d5f5f3e3d5ffd5b505050506040513d601f19601f82011682018060405250810190610b769190611785565b610bb5576040517f08c379a0000000000000000000000000000000000000000000000000000000008152600401610bac906117fa565b60405180910390fd5b5f5f9054906101000a900473ffffffffffffffffffffffffffffffffffffffff1673ffffffffffffffffffffffffffffffffffffffff16639183270f84846040518363ffffffff1660e01b8152600401610c10929190611880565b5f604051808303815f87803b158015610c27575f5ffd5b505af1158015610c39573d5f5f3e3d5ffd5b505050505f600280549050905060026040518060a001604052808673ffffffffffffffffffffffffffffffffffffffff1681526020018581526020015f1515815260200184815260200142815250908060018154018082558091505060019003905f5260205f2090600502015f909190919091505f820151815f015f6101000a81548173ffffffffffffffffffffffffffffffffffffffff021916908373ffffffffffffffffffffffffffffffffffffffff160217905550602082015181600101556040820151816002015f6101000a81548160ff0219169083151502179055506060820151816003019081610d2f9190611a3e565b5060808201518160040155505060035f8573ffffffffffffffffffffffffffffffffffffffff1673ffffffffffffffffffffffffffffffffffffffff1681526020019081526020015f2081908060018154018082558091505060019003905f5260205f20015f90919091909150555f5f5f9054906101000a900473ffffffffffffffffffffffffffffffffffffffff1673ffffffffffffffffffffffffffffffffffffffff1663fb3551ff866040518263ffffffff1660e01b8152600401610df79190611576565b5f60405180830381865afa158015610e11573d5f5f3e3d5ffd5b505050506040513d5f823e3d601f19601f82011682018060405250810190610e399190611c3c565b6080015190508473ffffffffffffffffffffffffffffffffffffffff167f6e7b3d32fc3b568214221c160a7d0a3c52c120ab6d89a227bd9b53a243b94213858584604051610e8993929190611c83565b60405180910390a25050505050565b60028181548110610ea7575f80fd5b905f5260205f2090600502015f91509050805f015f9054906101000a900473ffffffffffffffffffffffffffffffffffffffff1690806001015490806002015f9054906101000a900460ff1690806003018054610f03906116c3565b80601f0160208091040260200160405190810160405280929190818152602001828054610f2f906116c3565b8015610f7a5780601f10610f5157610100808354040283529160200191610f7a565b820191905f5260205f20905b815481529060010190602001808311610f5d57829003601f168201915b5050505050908060040154905085565b5f5f5f9054906101000a900473ffffffffffffffffffffffffffffffffffffffff1673ffffffffffffffffffffffffffffffffffffffff1663fb3551ff836040518263ffffffff1660e01b8152600401610fe49190611576565b5f60405180830381865afa158015610ffe573d5f5f3e3d5ffd5b505050506040513d5f823e3d601f19601f820116820180604052508101906110269190611c3c565b608001519050919050565b6040518060a001604052805f73ffffffffffffffffffffffffffffffffffffffff1681526020015f81526020015f15158152602001606081526020015f81525090565b5f604051905090565b5f5ffd5b5f5ffd5b5f73ffffffffffffffffffffffffffffffffffffffff82169050919050565b5f6110ae82611085565b9050919050565b6110be816110a4565b81146110c8575f5ffd5b50565b5f813590506110d9816110b5565b92915050565b5f602082840312156110f4576110f361107d565b5b5f611101848285016110cb565b91505092915050565b5f81519050919050565b5f82825260208201905092915050565b5f819050602082019050919050565b61113c816110a4565b82525050565b5f819050919050565b61115481611142565b82525050565b5f8115159050919050565b61116e8161115a565b82525050565b5f81519050919050565b5f82825260208201905092915050565b8281835e5f83830152505050565b5f601f19601f8301169050919050565b5f6111b682611174565b6111c0818561117e565b93506111d081856020860161118e565b6111d98161119c565b840191505092915050565b5f60a083015f8301516111f95f860182611133565b50602083015161120c602086018261114b565b50604083015161121f6040860182611165565b506060830151848203606086015261123782826111ac565b915050608083015161124c608086018261114b565b508091505092915050565b5f61126283836111e4565b905092915050565b5f602082019050919050565b5f6112808261110a565b61128a8185611114565b93508360208202850161129c85611124565b805f5b858110156112d757848403895281516112b88582611257565b94506112c38361126a565b925060208a0199505060018101905061129f565b50829750879550505050505092915050565b5f6020820190508181035f8301526113018184611276565b905092915050565b61131281611142565b811461131c575f5ffd5b50565b5f8135905061132d81611309565b92915050565b5f5ffd5b5f5ffd5b7f4e487b71000000000000000000000000000000000000000000000000000000005f52604160045260245ffd5b6113718261119c565b810181811067ffffffffffffffff821117156113905761138f61133b565b5b80604052505050565b5f6113a2611074565b90506113ae8282611368565b919050565b5f67ffffffffffffffff8211156113cd576113cc61133b565b5b6113d68261119c565b9050602081019050919050565b828183375f83830152505050565b5f6114036113fe846113b3565b611399565b90508281526020810184848401111561141f5761141e611337565b5b61142a8482856113e3565b509392505050565b5f82601f83011261144657611445611333565b5b81356114568482602086016113f1565b91505092915050565b5f5f5f606084860312156114765761147561107d565b5b5f611483868287016110cb565b93505060206114948682870161131f565b925050604084013567ffffffffffffffff8111156114b5576114b4611081565b5b6114c186828701611432565b9150509250925092565b5f819050919050565b5f6114ee6114e96114e484611085565b6114cb565b611085565b9050919050565b5f6114ff826114d4565b9050919050565b5f611510826114f5565b9050919050565b61152081611506565b82525050565b5f6020820190506115395f830184611517565b92915050565b61154881611142565b82525050565b5f6020820190506115615f83018461153f565b92915050565b611570816110a4565b82525050565b5f6020820190506115895f830184611567565b92915050565b5f602082840312156115a4576115a361107d565b5b5f6115b18482850161131f565b91505092915050565b6115c38161115a565b82525050565b5f82825260208201905092915050565b5f6115e382611174565b6115ed81856115c9565b93506115fd81856020860161118e565b6116068161119c565b840191505092915050565b5f60a0820190506116245f830188611567565b611631602083018761153f565b61163e60408301866115ba565b818103606083015261165081856115d9565b905061165f608083018461153f565b9695505050505050565b7f4e487b71000000000000000000000000000000000000000000000000000000005f52603260045260245ffd5b7f4e487b71000000000000000000000000000000000000000000000000000000005f52602260045260245ffd5b5f60028204905060018216806116da57607f821691505b6020821081036116ed576116ec611696565b5b50919050565b7f4f6e6c79206f776e6572000000000000000000000000000000000000000000005f82015250565b5f611727600a836115c9565b9150611732826116f3565b602082019050919050565b5f6020820190508181035f8301526117548161171b565b9050919050565b6117648161115a565b811461176e575f5ffd5b50565b5f8151905061177f8161175b565b92915050565b5f6020828403121561179a5761179961107d565b5b5f6117a784828501611771565b91505092915050565b7f4167656e74206e6f7420726567697374657265640000000000000000000000005f82015250565b5f6117e46014836115c9565b91506117ef826117b0565b602082019050919050565b5f6020820190508181035f830152611811816117d8565b9050919050565b7f4167656e742069732062616e6e656400000000000000000000000000000000005f82015250565b5f61184c600f836115c9565b915061185782611818565b602082019050919050565b5f6020820190508181035f83015261187981611840565b9050919050565b5f6040820190506118935f830185611567565b6118a0602083018461153f565b9392505050565b5f819050815f5260205f209050919050565b5f6020601f8301049050919050565b5f82821b905092915050565b5f600883026119037fffffffffffffffffffffffffffffffffffffffffffffffffffffffffffffffff826118c8565b61190d86836118c8565b95508019841693508086168417925050509392505050565b5f61193f61193a61193584611142565b6114cb565b611142565b9050919050565b5f819050919050565b61195883611925565b61196c61196482611946565b8484546118d4565b825550505050565b5f5f905090565b611983611974565b61198e81848461194f565b505050565b5b818110156119b1576119a65f8261197b565b600181019050611994565b5050565b601f8211156119f6576119c7816118a7565b6119d0846118b9565b810160208510156119df578190505b6119f36119eb856118b9565b830182611993565b50505b505050565b5f82821c905092915050565b5f611a165f19846008026119fb565b1980831691505092915050565b5f611a2e8383611a07565b9150826002028217905092915050565b611a4782611174565b67ffffffffffffffff811115611a6057611a5f61133b565b5b611a6a82546116c3565b611a758282856119b5565b5f60209050601f831160018114611aa6575f8415611a94578287015190505b611a9e8582611a23565b865550611b05565b601f198416611ab4866118a7565b5f5b82811015611adb57848901518255600182019150602085019450602081019050611ab6565b86831015611af85784890151611af4601f891682611a07565b8355505b6001600288020188555050505b505050505050565b5f5ffd5b5f5ffd5b5f611b27611b22846113b3565b611399565b905082815260208101848484011115611b4357611b42611337565b5b611b4e84828561118e565b509392505050565b5f82601f830112611b6a57611b69611333565b5b8151611b7a848260208601611b15565b91505092915050565b5f81519050611b9181611309565b92915050565b5f60a08284031215611bac57611bab611b0d565b5b611bb660a0611399565b90505f82015167ffffffffffffffff811115611bd557611bd4611b11565b5b611be184828501611b56565b5f830152506020611bf484828501611771565b6020830152506040611c0884828501611771565b6040830152506060611c1c84828501611b83565b6060830152506080611c3084828501611b83565b60808301525092915050565b5f60208284031215611c5157611c5061107d565b5b5f82015167ffffffffffffffff811115611c6e57611c6d611081565b5b611c7a84828501611b97565b91505092915050565b5f606082019050611c965f83018661153f565b8181036020830152611ca881856115d9565b9050611cb7604083018461153f565b949350505050565b5f60208284031215611cd457611cd361107d565b5b5f611ce184828501611b83565b9150509291505056fea26469706673582212201b01310ef974a5edc24289660bbc8dde16a877a889afe8b5cbe7847866e2950564736f6c634300081c0033",
  "linkReferences": {},
  "deployedLinkReferences": {},
  "immutableReferences": {},
  "inputSourceName": "project/contracts/trustScore.sol",
  "buildInfoId": "solc-0_8_28-c5c5df2a32a2daea0a626491fdbbc3b18c593a04"
}