{
  "_format": "hh3-artifact-1",
  "contractName": "vaultRegistry",
  "sourceName": "contracts/vaultRegistry.sol",
  "abi": [
    {
      "inputs": [],
      "stateMutability": "nonpayable",
      "type": "constructor"
    },
    {
      "inputs": [],
      "name": "AccessControlBadConfirmation",
      "type": "error"
    },
    {
      "inputs": [
        {
          "internalType": "address",
          "name": "account",
          "type": "address"
        },
        {
          "internalType": "bytes32",
          "name": "neededRole",
          "type": "bytes32"
        }
      ],
      "name": "AccessControlUnauthorizedAccount",
      "type": "error"
    },
    {
      "anonymous": false,
      "inputs": [
        {
          "indexed": true,
          "internalType": "address",
          "name": "wallet",
          "type": "address"
        },
        {
          "indexed": false,
          "internalType": "string",
          "name": "displayName",
          "type": "string"
        },
        {
          "indexed": false,
          "internalType": "uint256",
          "name": "timestamp",
          "type": "uint256"
        }
      ],
      "name": "AgentRegistered",
      "type": "event"
    },
    {
      "anonymous": false,
      "inputs": [
        {
          "indexed": true,
          "internalType": "address",
          "name": "wallet",
          "type": "address"
        },
        {
          "indexed": true,
          "internalType": "address",
          "name": "revokedBy",
          "type": "address"
        },
        {
          "indexed": false,
          "internalType": "uint256",
          "name": "timestamp",
          "type": "uint256"
        }
      ],
      "name": "AgentRevoked",
      "type": "event"
    },
    {
      "anonymous": false,
      "inputs": [
        {
          "indexed": true,
          "internalType": "address",
          "name": "wallet",
          "type": "address"
        },
        {
          "indexed": true,
          "internalType": "address",
          "name": "suspendedBy",
          "type": "address"
        },
        {
          "indexed": false,
          "internalType": "uint256",
          "name": "timestamp",
          "type": "uint256"
        }
      ],
      "name": "AgentSuspended",
      "type": "event"
    },
    {
      "anonymous": false,
      "inputs": [
        {
          "indexed": true,
          "internalType": "bytes32",
          "name": "role",
          "type": "bytes32"
        },
        {
          "indexed": true,
          "internalType": "bytes32",
          "name": "previousAdminRole",
          "type": "bytes32"
        },
        {
          "indexed": true,
          "internalType": "bytes32",
          "name": "newAdminRole",
          "type": "bytes32"
        }
      ],
      "name": "RoleAdminChanged",
      "type": "event"
    },
    {
      "anonymous": false,
      "inputs": [
        {
          "indexed": true,
          "internalType": "bytes32",
          "name": "role",
          "type": "bytes32"
        },
        {
          "indexed": true,
          "internalType": "address",
          "name": "account",
          "type": "address"
        },
        {
          "indexed": true,
          "internalType": "address",
          "name": "sender",
          "type": "address"
        }
      ],
      "name": "RoleGranted",
      "type": "event"
    },
    {
      "anonymous": false,
      "inputs": [
        {
          "indexed": true,
          "internalType": "bytes32",
          "name": "role",
          "type": "bytes32"
        },
        {
          "indexed": true,
          "internalType": "address",
          "name": "account",
          "type": "address"
        },
        {
          "indexed": true,
          "internalType": "address",
          "name": "sender",
          "type": "address"
        }
      ],
      "name": "RoleRevoked",
      "type": "event"
    },
    {
      "anonymous": false,
      "inputs": [
        {
          "indexed": true,
          "internalType": "address",
          "name": "wallet",
          "type": "address"
        },
        {
          "indexed": false,
          "internalType": "uint256",
          "name": "oldScore",
          "type": "uint256"
        },
        {
          "indexed": false,
          "internalType": "uint256",
          "name": "newScore",
          "type": "uint256"
        }
      ],
      "name": "TrustScoreUpdated",
      "type": "event"
    },
    {
      "inputs": [],
      "name": "AGENT_ROLE",
      "outputs": [
        {
          "internalType": "bytes32",
          "name": "",
          "type": "bytes32"
        }
      ],
      "stateMutability": "view",
      "type": "function"
    },
    {
      "inputs": [],
      "name": "ARCHITECT_ROLE",
      "outputs": [
        {
          "internalType": "bytes32",
          "name": "",
          "type": "bytes32"
        }
      ],
      "stateMutability": "view",
      "type": "function"
    },
    {
      "inputs": [],
      "name": "DEFAULT_ADMIN_ROLE",
      "outputs": [
        {
          "internalType": "bytes32",
          "name": "",
          "type": "bytes32"
        }
      ],
      "stateMutability": "view",
      "type": "function"
    },
    {
      "inputs": [],
      "name": "GUARDIAN_ROLE",
      "outputs": [
        {
          "internalType": "bytes32",
          "name": "",
          "type": "bytes32"
        }
      ],
      "stateMutability": "view",
      "type": "function"
    },
    {
      "inputs": [
        {
          "internalType": "address",
          "name": "wallet",
          "type": "address"
        },
        {
          "internalType": "uint256",
          "name": "points",
          "type": "uint256"
        }
      ],
      "name": "addTrustPoints",
      "outputs": [],
      "stateMutability": "nonpayable",
      "type": "function"
    },
    {
      "inputs": [
        {
          "internalType": "uint256",
          "name": "",
          "type": "uint256"
        }
      ],
      "name": "agentList",
      "outputs": [
        {
          "internalType": "address",
          "name": "",
          "type": "address"
        }
      ],
      "stateMutability": "view",
      "type": "function"
    },
    {
      "inputs": [
        {
          "internalType": "address",
          "name": "",
          "type": "address"
        }
      ],
      "name": "agents",
      "outputs": [
        {
          "internalType": "string",
          "name": "displayName",
          "type": "string"
        },
        {
          "internalType": "bool",
          "name": "isRegistered",
          "type": "bool"
        },
        {
          "internalType": "bool",
          "name": "isRevoked",
          "type": "bool"
        },
        {
          "internalType": "uint256",
          "name": "joinedAt",
          "type": "uint256"
        },
        {
          "internalType": "uint256",
          "name": "trustScore",
          "type": "uint256"
        }
      ],
      "stateMutability": "view",
      "type": "function"
    },
    {
      "inputs": [
        {
          "internalType": "address",
          "name": "wallet",
          "type": "address"
        },
        {
          "internalType": "uint256",
          "name": "points",
          "type": "uint256"
        }
      ],
      "name": "deductTrustPoints",
      "outputs": [],
      "stateMutability": "nonpayable",
      "type": "function"
    },
    {
      "inputs": [
        {
          "internalType": "address",
          "name": "wallet",
          "type": "address"
        }
      ],
      "name": "demoteToAgent",
      "outputs": [],
      "stateMutability": "nonpayable",
      "type": "function"
    },
    {
      "inputs": [
        {
          "internalType": "address",
          "name": "wallet",
          "type": "address"
        }
      ],
      "name": "getAgent",
      "outputs": [
        {
          "components": [
            {
              "internalType": "string",
              "name": "displayName",
              "type": "string"
            },
            {
              "internalType": "bool",
              "name": "isRegistered",
              "type": "bool"
            },
            {
              "internalType": "bool",
              "name": "isRevoked",
              "type": "bool"
            },
            {
              "internalType": "uint256",
              "name": "joinedAt",
              "type": "uint256"
            },
            {
              "internalType": "uint256",
              "name": "trustScore",
              "type": "uint256"
            }
          ],
          "internalType": "struct vaultRegistry.Agent",
          "name": "",
          "type": "tuple"
        }
      ],
      "stateMutability": "view",
      "type": "function"
    },
    {
      "inputs": [
        {
          "internalType": "bytes32",
          "name": "role",
          "type": "bytes32"
        }
      ],
      "name": "getRoleAdmin",
      "outputs": [
        {
          "internalType": "bytes32",
          "name": "",
          "type": "bytes32"
        }
      ],
      "stateMutability": "view",
      "type": "function"
    },
    {
      "inputs": [],
      "name": "getTotalAgents",
      "outputs": [
        {
          "internalType": "uint256",
          "name": "",
          "type": "uint256"
        }
      ],
      "stateMutability": "view",
      "type": "function"
    },
    {
      "inputs": [
        {
          "internalType": "address",
          "name": "wallet",
          "type": "address"
        }
      ],
      "name": "getTrustLevel",
      "outputs": [
        {
          "internalType": "uint256",
          "name": "",
          "type": "uint256"
        }
      ],
      "stateMutability": "view",
      "type": "function"
    },
    {
      "inputs": [
        {
          "internalType": "bytes32",
          "name": "role",
          "type": "bytes32"
        },
        {
          "internalType": "address",
          "name": "account",
          "type": "address"
        }
      ],
      "name": "grantRole",
      "outputs": [],
      "stateMutability": "nonpayable",
      "type": "function"
    },
    {
      "inputs": [
        {
          "internalType": "bytes32",
          "name": "role",
          "type": "bytes32"
        },
        {
          "internalType": "address",
          "name": "account",
          "type": "address"
        }
      ],
      "name": "hasRole",
      "outputs": [
        {
          "internalType": "bool",
          "name": "",
          "type": "bool"
        }
      ],
      "stateMutability": "view",
      "type": "function"
    },
    {
      "inputs": [
        {
          "internalType": "address",
          "name": "wallet",
          "type": "address"
        }
      ],
      "name": "isRegistered",
      "outputs": [
        {
          "internalType": "bool",
          "name": "",
          "type": "bool"
        }
      ],
      "stateMutability": "view",
      "type": "function"
    },
    {
      "inputs": [
        {
          "internalType": "address",
          "name": "wallet",
          "type": "address"
        }
      ],
      "name": "isRevoked",
      "outputs": [
        {
          "internalType": "bool",
          "name": "",
          "type": "bool"
        }
      ],
      "stateMutability": "view",
      "type": "function"
    },
    {
      "inputs": [
        {
          "internalType": "address",
          "name": "wallet",
          "type": "address"
        }
      ],
      "name": "promoteToGuardian",
      "outputs": [],
      "stateMutability": "nonpayable",
      "type": "function"
    },
    {
      "inputs": [
        {
          "internalType": "string",
          "name": "displayName",
          "type": "string"
        }
      ],
      "name": "register",
      "outputs": [],
      "stateMutability": "nonpayable",
      "type": "function"
    },
    {
      "inputs": [
        {
          "internalType": "bytes32",
          "name": "role",
          "type": "bytes32"
        },
        {
          "internalType": "address",
          "name": "callerConfirmation",
          "type": "address"
        }
      ],
      "name": "renounceRole",
      "outputs": [],
      "stateMutability": "nonpayable",
      "type": "function"
    },
    {
      "inputs": [
        {
          "internalType": "address",
          "name": "wallet",
          "type": "address"
        }
      ],
      "name": "revokeAgent",
      "outputs": [],
      "stateMutability": "nonpayable",
      "type": "function"
    },
    {
      "inputs": [
        {
          "internalType": "bytes32",
          "name": "role",
          "type": "bytes32"
        },
        {
          "internalType": "address",
          "name": "account",
          "type": "address"
        }
      ],
      "name": "revokeRole",
      "outputs": [],
      "stateMutability": "nonpayable",
      "type": "function"
    },
    {
      "inputs": [
        {
          "internalType": "bytes4",
          "name": "interfaceId",
          "type": "bytes4"
        }
      ],
      "name": "supportsInterface",
      "outputs": [
        {
          "internalType": "bool",
          "name": "",
          "type": "bool"
        }
      ],
      "stateMutability": "view",
      "type": "function"
    }
  ],
  "bytecode": "0x608060405234801561000f575f5ffd5b506100225f5f1b3361005960201b60201c565b506100537fd81d72b65535f1777b4b20777e5306dade95bd1fde525ef999f6bd610befc1d43361005960201b60201c565b506101b8565b5f61006a838361014e60201b60201c565b6101445760015f5f8581526020019081526020015f205f015f8473ffffffffffffffffffffffffffffffffffffffff1673ffffffffffffffffffffffffffffffffffffffff1681526020019081526020015f205f6101000a81548160ff0219169083151502179055506100e16101b160201b60201c565b73ffffffffffffffffffffffffffffffffffffffff168273ffffffffffffffffffffffffffffffffffffffff16847f2f8788117e7eff1d82e926ec794901d17c78024a50270940304540a733656f0d60405160405180910390a460019050610148565b5f90505b92915050565b5f5f5f8481526020019081526020015f205f015f8373ffffffffffffffffffffffffffffffffffffffff1673ffffffffffffffffffffffffffffffffffffffff1681526020019081526020015f205f9054906101000a900460ff16905092915050565b5f33905090565b6126e9806101c55f395ff3fe608060405234801561000f575f5ffd5b506004361061014b575f3560e01c8063726fd158116100c1578063c3c5a5471161007a578063c3c5a54714610399578063d547741f146103c9578063e16c0652146103e5578063f2c298be14610415578063fb3551ff14610431578063fd66091e146104615761014b565b8063726fd158146102d95780637da6ac0d146102f55780639183270f1461031157806391d148541461032d57806395d115131461035d578063a217fddf1461037b5761014b565b80632f2ff15d116101135780632f2ff15d146102075780632f80c54f1461022357806336568abe146102535780633731a16f1461026f5780634d11df0b1461028d5780636a4b783d146102a95761014b565b806301ffc9a71461014f578063086839511461017f57806322459e181461019b578063248a9ca3146101b957806324ea54f4146101e9575b5f5ffd5b61016960048036038101906101649190611969565b610495565b60405161017691906119ae565b60405180910390f35b61019960048036038101906101949190611a54565b61050e565b005b6101a3610668565b6040516101b09190611aaa565b60405180910390f35b6101d360048036038101906101ce9190611aed565b61068c565b6040516101e09190611aaa565b60405180910390f35b6101f16106a8565b6040516101fe9190611aaa565b60405180910390f35b610221600480360381019061021c9190611b18565b6106cc565b005b61023d60048036038101906102389190611b56565b6106ee565b60405161024a9190611b90565b60405180910390f35b61026d60048036038101906102689190611b18565b610729565b005b6102776107a4565b6040516102849190611bb8565b60405180910390f35b6102a760048036038101906102a29190611bd1565b6107b0565b005b6102c360048036038101906102be9190611bd1565b610998565b6040516102d09190611bb8565b60405180910390f35b6102f360048036038101906102ee9190611bd1565b610a30565b005b61030f600480360381019061030a9190611bd1565b610af2565b005b61032b60048036038101906103269190611a54565b610d92565b005b61034760048036038101906103429190611b18565b610f7e565b60405161035491906119ae565b60405180910390f35b610365610fe1565b6040516103729190611aaa565b60405180910390f35b610383611005565b6040516103909190611aaa565b60405180910390f35b6103b360048036038101906103ae9190611bd1565b61100b565b6040516103c091906119ae565b60405180910390f35b6103e360048036038101906103de9190611b18565b611060565b005b6103ff60048036038101906103fa9190611bd1565b611082565b60405161040c91906119ae565b60405180910390f35b61042f600480360381019061042a9190611d38565b6110d8565b005b61044b60048036038101906104469190611bd1565b61142d565b6040516104589190611e70565b60405180910390f35b61047b60048036038101906104769190611bd1565b61155c565b60405161048c959493929190611ed8565b60405180910390f35b5f7f7965db0b000000000000000000000000000000000000000000000000000000007bffffffffffffffffffffffffffffffffffffffffffffffffffffffff1916827bffffffffffffffffffffffffffffffffffffffffffffffffffffffff1916148061050757506105068261162d565b5b9050919050565b7fd81d72b65535f1777b4b20777e5306dade95bd1fde525ef999f6bd610befc1d461053881611696565b5f60015f8573ffffffffffffffffffffffffffffffffffffffff1673ffffffffffffffffffffffffffffffffffffffff1681526020019081526020015f206003015490508260015f8673ffffffffffffffffffffffffffffffffffffffff1673ffffffffffffffffffffffffffffffffffffffff1681526020019081526020015f206003015f8282546105cb9190611f5d565b925050819055508373ffffffffffffffffffffffffffffffffffffffff167f15dd57e0cde9af9083c846eb39c9da382e907c0036818e4a163ecd167e5f32768260015f8873ffffffffffffffffffffffffffffffffffffffff1673ffffffffffffffffffffffffffffffffffffffff1681526020019081526020015f206003015460405161065a929190611f90565b60405180910390a250505050565b7fcab5a0bfe0b79d2c4b1c2e02599fa044d115b7511f9659307cb427695096770981565b5f5f5f8381526020019081526020015f20600101549050919050565b7f55435dd261a4b9b3364963f7738a7a662ad9c84396d64be3365284bb7f0a504181565b6106d58261068c565b6106de81611696565b6106e883836116aa565b50505050565b600281815481106106fd575f80fd5b905f5260205f20015f915054906101000a900473ffffffffffffffffffffffffffffffffffffffff1681565b610731611793565b73ffffffffffffffffffffffffffffffffffffffff168173ffffffffffffffffffffffffffffffffffffffff1614610795576040517f6697b23200000000000000000000000000000000000000000000000000000000815260040160405180910390fd5b61079f828261179a565b505050565b5f600280549050905090565b7fd81d72b65535f1777b4b20777e5306dade95bd1fde525ef999f6bd610befc1d46107da81611696565b60015f8373ffffffffffffffffffffffffffffffffffffffff1673ffffffffffffffffffffffffffffffffffffffff1681526020019081526020015f206001015f9054906101000a900460ff16610866576040517f08c379a000000000000000000000000000000000000000000000000000000000815260040161085d90612001565b60405180910390fd5b60015f8373ffffffffffffffffffffffffffffffffffffffff1673ffffffffffffffffffffffffffffffffffffffff1681526020019081526020015f2060010160019054906101000a900460ff16156108f4576040517f08c379a00000000000000000000000000000000000000000000000000000000081526004016108eb90612069565b60405180910390fd5b61091e7f55435dd261a4b9b3364963f7738a7a662ad9c84396d64be3365284bb7f0a504183610f7e565b1561095e576040517f08c379a0000000000000000000000000000000000000000000000000000000008152600401610955906120d1565b60405180910390fd5b6109887f55435dd261a4b9b3364963f7738a7a662ad9c84396d64be3365284bb7f0a5041836116aa565b5061099482603261050e565b5050565b5f5f60015f8473ffffffffffffffffffffffffffffffffffffffff1673ffffffffffffffffffffffffffffffffffffffff1681526020019081526020015f2060030154905060c881106109ef576005915050610a2b565b60658110610a01576004915050610a2b565b60338110610a13576003915050610a2b565b60158110610a25576002915050610a2b565b60019150505b919050565b7fd81d72b65535f1777b4b20777e5306dade95bd1fde525ef999f6bd610befc1d4610a5a81611696565b610a847f55435dd261a4b9b3364963f7738a7a662ad9c84396d64be3365284bb7f0a504183610f7e565b610ac3576040517f08c379a0000000000000000000000000000000000000000000000000000000008152600401610aba90612139565b60405180910390fd5b610aed7f55435dd261a4b9b3364963f7738a7a662ad9c84396d64be3365284bb7f0a50418361179a565b505050565b7fd81d72b65535f1777b4b20777e5306dade95bd1fde525ef999f6bd610befc1d4610b1c81611696565b60015f8373ffffffffffffffffffffffffffffffffffffffff1673ffffffffffffffffffffffffffffffffffffffff1681526020019081526020015f206001015f9054906101000a900460ff16610ba8576040517f08c379a0000000000000000000000000000000000000000000000000000000008152600401610b9f90612001565b60405180910390fd5b60015f8373ffffffffffffffffffffffffffffffffffffffff1673ffffffffffffffffffffffffffffffffffffffff1681526020019081526020015f2060010160019054906101000a900460ff1615610c36576040517f08c379a0000000000000000000000000000000000000000000000000000000008152600401610c2d906121a1565b60405180910390fd5b6001805f8473ffffffffffffffffffffffffffffffffffffffff1673ffffffffffffffffffffffffffffffffffffffff1681526020019081526020015f2060010160016101000a81548160ff0219169083151502179055505f60015f8473ffffffffffffffffffffffffffffffffffffffff1673ffffffffffffffffffffffffffffffffffffffff1681526020019081526020015f2060030181905550610cfd7fcab5a0bfe0b79d2c4b1c2e02599fa044d115b7511f9659307cb42769509677098361179a565b50610d287f55435dd261a4b9b3364963f7738a7a662ad9c84396d64be3365284bb7f0a50418361179a565b503373ffffffffffffffffffffffffffffffffffffffff168273ffffffffffffffffffffffffffffffffffffffff167f5469a8dba72c139594d95b6f5c6dfbbf241d9f2680dfe96ef65b1866f9d3a65042604051610d869190611bb8565b60405180910390a35050565b7fd81d72b65535f1777b4b20777e5306dade95bd1fde525ef999f6bd610befc1d4610dbc81611696565b5f60015f8573ffffffffffffffffffffffffffffffffffffffff1673ffffffffffffffffffffffffffffffffffffffff1681526020019081526020015f206003015490508260015f8673ffffffffffffffffffffffffffffffffffffffff1673ffffffffffffffffffffffffffffffffffffffff1681526020019081526020015f206003015410610ea2578260015f8673ffffffffffffffffffffffffffffffffffffffff1673ffffffffffffffffffffffffffffffffffffffff1681526020019081526020015f206003015f828254610e9691906121bf565b92505081905550610ee8565b5f60015f8673ffffffffffffffffffffffffffffffffffffffff1673ffffffffffffffffffffffffffffffffffffffff1681526020019081526020015f20600301819055505b8373ffffffffffffffffffffffffffffffffffffffff167f15dd57e0cde9af9083c846eb39c9da382e907c0036818e4a163ecd167e5f32768260015f8873ffffffffffffffffffffffffffffffffffffffff1673ffffffffffffffffffffffffffffffffffffffff1681526020019081526020015f2060030154604051610f70929190611f90565b60405180910390a250505050565b5f5f5f8481526020019081526020015f205f015f8373ffffffffffffffffffffffffffffffffffffffff1673ffffffffffffffffffffffffffffffffffffffff1681526020019081526020015f205f9054906101000a900460ff16905092915050565b7fd81d72b65535f1777b4b20777e5306dade95bd1fde525ef999f6bd610befc1d481565b5f5f1b81565b5f60015f8373ffffffffffffffffffffffffffffffffffffffff1673ffffffffffffffffffffffffffffffffffffffff1681526020019081526020015f206001015f9054906101000a900460ff169050919050565b6110698261068c565b61107281611696565b61107c838361179a565b50505050565b5f60015f8373ffffffffffffffffffffffffffffffffffffffff1673ffffffffffffffffffffffffffffffffffffffff1681526020019081526020015f2060010160019054906101000a900460ff169050919050565b60015f3373ffffffffffffffffffffffffffffffffffffffff1673ffffffffffffffffffffffffffffffffffffffff1681526020019081526020015f206001015f9054906101000a900460ff1615611165576040517f08c379a000000000000000000000000000000000000000000000000000000000815260040161115c9061223c565b60405180910390fd5b60015f3373ffffffffffffffffffffffffffffffffffffffff1673ffffffffffffffffffffffffffffffffffffffff1681526020019081526020015f2060010160019054906101000a900460ff16156111f3576040517f08c379a00000000000000000000000000000000000000000000000000000000081526004016111ea906122a4565b60405180910390fd5b5f815111611236576040517f08c379a000000000000000000000000000000000000000000000000000000000815260040161122d9061230c565b60405180910390fd5b60208151111561127b576040517f08c379a000000000000000000000000000000000000000000000000000000000815260040161127290612374565b60405180910390fd5b6040518060a001604052808281526020016001151581526020015f15158152602001428152602001600581525060015f3373ffffffffffffffffffffffffffffffffffffffff1673ffffffffffffffffffffffffffffffffffffffff1681526020019081526020015f205f820151815f0190816112f8919061258f565b506020820151816001015f6101000a81548160ff02191690831515021790555060408201518160010160016101000a81548160ff02191690831515021790555060608201518160020155608082015181600301559050506113797fcab5a0bfe0b79d2c4b1c2e02599fa044d115b7511f9659307cb4276950967709336116aa565b50600233908060018154018082558091505060019003905f5260205f20015f9091909190916101000a81548173ffffffffffffffffffffffffffffffffffffffff021916908373ffffffffffffffffffffffffffffffffffffffff1602179055503373ffffffffffffffffffffffffffffffffffffffff167f023c5efe572c42192271951adb0e77f97d7fc84bc761d026189ac08617346824824260405161142292919061265e565b60405180910390a250565b6114356118d4565b60015f8373ffffffffffffffffffffffffffffffffffffffff1673ffffffffffffffffffffffffffffffffffffffff1681526020019081526020015f206040518060a00160405290815f8201805461148c906123bf565b80601f01602080910402602001604051908101604052809291908181526020018280546114b8906123bf565b80156115035780601f106114da57610100808354040283529160200191611503565b820191905f5260205f20905b8154815290600101906020018083116114e657829003601f168201915b50505050508152602001600182015f9054906101000a900460ff161515151581526020016001820160019054906101000a900460ff16151515158152602001600282015481526020016003820154815250509050919050565b6001602052805f5260405f205f91509050805f01805461157b906123bf565b80601f01602080910402602001604051908101604052809291908181526020018280546115a7906123bf565b80156115f25780601f106115c9576101008083540402835291602001916115f2565b820191905f5260205f20905b8154815290600101906020018083116115d557829003601f168201915b505050505090806001015f9054906101000a900460ff16908060010160019054906101000a900460ff16908060020154908060030154905085565b5f7f01ffc9a7000000000000000000000000000000000000000000000000000000007bffffffffffffffffffffffffffffffffffffffffffffffffffffffff1916827bffffffffffffffffffffffffffffffffffffffffffffffffffffffff1916149050919050565b6116a7816116a2611793565b611883565b50565b5f6116b58383610f7e565b6117895760015f5f8581526020019081526020015f205f015f8473ffffffffffffffffffffffffffffffffffffffff1673ffffffffffffffffffffffffffffffffffffffff1681526020019081526020015f205f6101000a81548160ff021916908315150217905550611726611793565b73ffffffffffffffffffffffffffffffffffffffff168273ffffffffffffffffffffffffffffffffffffffff16847f2f8788117e7eff1d82e926ec794901d17c78024a50270940304540a733656f0d60405160405180910390a46001905061178d565b5f90505b92915050565b5f33905090565b5f6117a58383610f7e565b15611879575f5f5f8581526020019081526020015f205f015f8473ffffffffffffffffffffffffffffffffffffffff1673ffffffffffffffffffffffffffffffffffffffff1681526020019081526020015f205f6101000a81548160ff021916908315150217905550611816611793565b73ffffffffffffffffffffffffffffffffffffffff168273ffffffffffffffffffffffffffffffffffffffff16847ff6391f5c32d9c69d2a47ea670b442974b53935d1edc7fd64eb21e047a839171b60405160405180910390a46001905061187d565b5f90505b92915050565b61188d8282610f7e565b6118d05780826040517fe2517d3f0000000000000000000000000000000000000000000000000000000081526004016118c792919061268c565b60405180910390fd5b5050565b6040518060a00160405280606081526020015f151581526020015f151581526020015f81526020015f81525090565b5f604051905090565b5f5ffd5b5f5ffd5b5f7fffffffff0000000000000000000000000000000000000000000000000000000082169050919050565b61194881611914565b8114611952575f5ffd5b50565b5f813590506119638161193f565b92915050565b5f6020828403121561197e5761197d61190c565b5b5f61198b84828501611955565b91505092915050565b5f8115159050919050565b6119a881611994565b82525050565b5f6020820190506119c15f83018461199f565b92915050565b5f73ffffffffffffffffffffffffffffffffffffffff82169050919050565b5f6119f0826119c7565b9050919050565b611a00816119e6565b8114611a0a575f5ffd5b50565b5f81359050611a1b816119f7565b92915050565b5f819050919050565b611a3381611a21565b8114611a3d575f5ffd5b50565b5f81359050611a4e81611a2a565b92915050565b5f5f60408385031215611a6a57611a6961190c565b5b5f611a7785828601611a0d565b9250506020611a8885828601611a40565b9150509250929050565b5f819050919050565b611aa481611a92565b82525050565b5f602082019050611abd5f830184611a9b565b92915050565b611acc81611a92565b8114611ad6575f5ffd5b50565b5f81359050611ae781611ac3565b92915050565b5f60208284031215611b0257611b0161190c565b5b5f611b0f84828501611ad9565b91505092915050565b5f5f60408385031215611b2e57611b2d61190c565b5b5f611b3b85828601611ad9565b9250506020611b4c85828601611a0d565b9150509250929050565b5f60208284031215611b6b57611b6a61190c565b5b5f611b7884828501611a40565b91505092915050565b611b8a816119e6565b82525050565b5f602082019050611ba35f830184611b81565b92915050565b611bb281611a21565b82525050565b5f602082019050611bcb5f830184611ba9565b92915050565b5f60208284031215611be657611be561190c565b5b5f611bf384828501611a0d565b91505092915050565b5f5ffd5b5f5ffd5b5f601f19601f8301169050919050565b7f4e487b71000000000000000000000000000000000000000000000000000000005f52604160045260245ffd5b611c4a82611c04565b810181811067ffffffffffffffff82111715611c6957611c68611c14565b5b80604052505050565b5f611c7b611903565b9050611c878282611c41565b919050565b5f67ffffffffffffffff821115611ca657611ca5611c14565b5b611caf82611c04565b9050602081019050919050565b828183375f83830152505050565b5f611cdc611cd784611c8c565b611c72565b905082815260208101848484011115611cf857611cf7611c00565b5b611d03848285611cbc565b509392505050565b5f82601f830112611d1f57611d1e611bfc565b5b8135611d2f848260208601611cca565b91505092915050565b5f60208284031215611d4d57611d4c61190c565b5b5f82013567ffffffffffffffff811115611d6a57611d69611910565b5b611d7684828501611d0b565b91505092915050565b5f81519050919050565b5f82825260208201905092915050565b8281835e5f83830152505050565b5f611db182611d7f565b611dbb8185611d89565b9350611dcb818560208601611d99565b611dd481611c04565b840191505092915050565b611de881611994565b82525050565b611df781611a21565b82525050565b5f60a083015f8301518482035f860152611e178282611da7565b9150506020830151611e2c6020860182611ddf565b506040830151611e3f6040860182611ddf565b506060830151611e526060860182611dee565b506080830151611e656080860182611dee565b508091505092915050565b5f6020820190508181035f830152611e888184611dfd565b905092915050565b5f82825260208201905092915050565b5f611eaa82611d7f565b611eb48185611e90565b9350611ec4818560208601611d99565b611ecd81611c04565b840191505092915050565b5f60a0820190508181035f830152611ef08188611ea0565b9050611eff602083018761199f565b611f0c604083018661199f565b611f196060830185611ba9565b611f266080830184611ba9565b9695505050505050565b7f4e487b71000000000000000000000000000000000000000000000000000000005f52601160045260245ffd5b5f611f6782611a21565b9150611f7283611a21565b9250828201905080821115611f8a57611f89611f30565b5b92915050565b5f604082019050611fa35f830185611ba9565b611fb06020830184611ba9565b9392505050565b7f4167656e74206e6f7420666f756e6400000000000000000000000000000000005f82015250565b5f611feb600f83611e90565b9150611ff682611fb7565b602082019050919050565b5f6020820190508181035f83015261201881611fdf565b9050919050565b7f4167656e742069732062616e6e656400000000000000000000000000000000005f82015250565b5f612053600f83611e90565b915061205e8261201f565b602082019050919050565b5f6020820190508181035f83015261208081612047565b9050919050565b7f416c7265616479206120477561726469616e00000000000000000000000000005f82015250565b5f6120bb601283611e90565b91506120c682612087565b602082019050919050565b5f6020820190508181035f8301526120e8816120af565b9050919050565b7f4e6f74206120477561726469616e0000000000000000000000000000000000005f82015250565b5f612123600e83611e90565b915061212e826120ef565b602082019050919050565b5f6020820190508181035f83015261215081612117565b9050919050565b7f416c7265616479207265766f6b656400000000000000000000000000000000005f82015250565b5f61218b600f83611e90565b915061219682612157565b602082019050919050565b5f6020820190508181035f8301526121b88161217f565b9050919050565b5f6121c982611a21565b91506121d483611a21565b92508282039050818111156121ec576121eb611f30565b5b92915050565b7f416c7265616479207265676973746572656400000000000000000000000000005f82015250565b5f612226601283611e90565b9150612231826121f2565b602082019050919050565b5f6020820190508181035f8301526122538161221a565b9050919050565b7f57616c6c65742069732062616e6e6564000000000000000000000000000000005f82015250565b5f61228e601083611e90565b91506122998261225a565b602082019050919050565b5f6020820190508181035f8301526122bb81612282565b9050919050565b7f446973706c6179206e616d652063616e6e6f7420626520656d707479000000005f82015250565b5f6122f6601c83611e90565b9150612301826122c2565b602082019050919050565b5f6020820190508181035f830152612323816122ea565b9050919050565b7f446973706c6179206e616d6520746f6f206c6f6e6700000000000000000000005f82015250565b5f61235e601583611e90565b91506123698261232a565b602082019050919050565b5f6020820190508181035f83015261238b81612352565b9050919050565b7f4e487b71000000000000000000000000000000000000000000000000000000005f52602260045260245ffd5b5f60028204905060018216806123d657607f821691505b6020821081036123e9576123e8612392565b5b50919050565b5f819050815f5260205f209050919050565b5f6020601f8301049050919050565b5f82821b905092915050565b5f6008830261244b7fffffffffffffffffffffffffffffffffffffffffffffffffffffffffffffffff82612410565b6124558683612410565b95508019841693508086168417925050509392505050565b5f819050919050565b5f61249061248b61248684611a21565b61246d565b611a21565b9050919050565b5f819050919050565b6124a983612476565b6124bd6124b582612497565b84845461241c565b825550505050565b5f5f905090565b6124d46124c5565b6124df8184846124a0565b505050565b5b81811015612502576124f75f826124cc565b6001810190506124e5565b5050565b601f82111561254757612518816123ef565b61252184612401565b81016020851015612530578190505b61254461253c85612401565b8301826124e4565b50505b505050565b5f82821c905092915050565b5f6125675f198460080261254c565b1980831691505092915050565b5f61257f8383612558565b9150826002028217905092915050565b61259882611d7f565b67ffffffffffffffff8111156125b1576125b0611c14565b5b6125bb82546123bf565b6125c6828285612506565b5f60209050601f8311600181146125f7575f84156125e5578287015190505b6125ef8582612574565b865550612656565b601f198416612605866123ef565b5f5b8281101561262c57848901518255600182019150602085019450602081019050612607565b868310156126495784890151612645601f891682612558565b8355505b6001600288020188555050505b505050505050565b5f6040820190508181035f8301526126768185611ea0565b90506126856020830184611ba9565b9392505050565b5f60408201905061269f5f830185611b81565b6126ac6020830184611a9b565b939250505056fea26469706673582212206916f2e8b3b610250715722e8552f08b5fd3727cf3c70d0b4445b5aabeaf850b64736f6c634300081c0033",
  "linkReferences": {},
  "deployedLinkReferences": {},
  "immutableReferences": {},
  "inputSourceName": "project/contracts/vaultRegistry.sol",
  "buildInfoId": "solc-0_8_28-d09a2590e00b8ef221bffe90bf59e1f7b80292db"
}