{
  "_format": "hh3-artifact-1",
  "contractName": "vaultRoom",
  "sourceName": "contracts/vaultRoom.sol",
  "abi": [
    {
      "anonymous": false,
      "inputs": [
        {
          "indexed": true,
          "internalType": "uint256",
          "name": "roomId",
          "type": "uint256"
        },
        {
          "indexed": true,
          "internalType": "address",
          "name": "member",
          "type": "address"
        },
        {
          "indexed": false,
          "internalType": "uint256",
          "name": "timestamp",
          "type": "uint256"
        }
      ],
      "name": "memberJoined",
      "type": "event"
    },
    {
      "anonymous": false,
      "inputs": [
        {
          "indexed": true,
          "internalType": "uint256",
          "name": "roomId",
          "type": "uint256"
        },
        {
          "indexed": false,
          "internalType": "string",
          "name": "name",
          "type": "string"
        },
        {
          "indexed": true,
          "internalType": "address",
          "name": "creator",
          "type": "address"
        },
        {
          "indexed": false,
          "internalType": "uint256",
          "name": "timestamp",
          "type": "uint256"
        }
      ],
      "name": "roomCreated",
      "type": "event"
    },
    {
      "inputs": [
        {
          "internalType": "uint256",
          "name": "roomId",
          "type": "uint256"
        },
        {
          "internalType": "address",
          "name": "wallet",
          "type": "address"
        }
      ],
      "name": "canUpload",
      "outputs": [
        {
          "internalType": "bool",
          "name": "",
          "type": "bool"
        }
      ],
      "stateMutability": "view",
      "type": "function"
    },
    {
      "inputs": [
        {
          "internalType": "string",
          "name": "name",
          "type": "string"
        },
        {
          "internalType": "bytes32",
          "name": "keyHash",
          "type": "bytes32"
        },
        {
          "internalType": "bool",
          "name": "creatorOnlyUpload",
          "type": "bool"
        }
      ],
      "name": "createRoom",
      "outputs": [
        {
          "internalType": "uint256",
          "name": "",
          "type": "uint256"
        }
      ],
      "stateMutability": "nonpayable",
      "type": "function"
    },
    {
      "inputs": [
        {
          "internalType": "address",
          "name": "wallet",
          "type": "address"
        }
      ],
      "name": "getMemberRooms",
      "outputs": [
        {
          "internalType": "uint256[]",
          "name": "",
          "type": "uint256[]"
        }
      ],
      "stateMutability": "view",
      "type": "function"
    },
    {
      "inputs": [
        {
          "internalType": "uint256",
          "name": "roomId",
          "type": "uint256"
        }
      ],
      "name": "getRoom",
      "outputs": [
        {
          "components": [
            {
              "internalType": "uint256",
              "name": "id",
              "type": "uint256"
            },
            {
              "internalType": "string",
              "name": "name",
              "type": "string"
            },
            {
              "internalType": "bytes32",
              "name": "keyHash",
              "type": "bytes32"
            },
            {
              "internalType": "address",
              "name": "creator",
              "type": "address"
            },
            {
              "internalType": "uint256",
              "name": "createdAt",
              "type": "uint256"
            },
            {
              "internalType": "uint256",
              "name": "memberCount",
              "type": "uint256"
            },
            {
              "internalType": "bool",
              "name": "creatorOnlyUpload",
              "type": "bool"
            },
            {
              "internalType": "bool",
              "name": "exists",
              "type": "bool"
            }
          ],
          "internalType": "struct vaultRoom.room",
          "name": "",
          "type": "tuple"
        }
      ],
      "stateMutability": "view",
      "type": "function"
    },
    {
      "inputs": [
        {
          "internalType": "uint256",
          "name": "roomId",
          "type": "uint256"
        },
        {
          "internalType": "address",
          "name": "wallet",
          "type": "address"
        }
      ],
      "name": "isMember",
      "outputs": [
        {
          "internalType": "bool",
          "name": "",
          "type": "bool"
        }
      ],
      "stateMutability": "view",
      "type": "function"
    },
    {
      "inputs": [
        {
          "internalType": "uint256",
          "name": "roomId",
          "type": "uint256"
        },
        {
          "internalType": "bytes32",
          "name": "keyHash",
          "type": "bytes32"
        }
      ],
      "name": "joinRoom",
      "outputs": [
        {
          "internalType": "bool",
          "name": "",
          "type": "bool"
        }
      ],
      "stateMutability": "nonpayable",
      "type": "function"
    },
    {
      "inputs": [
        {
          "internalType": "address",
          "name": "",
          "type": "address"
        },
        {
          "internalType": "uint256",
          "name": "",
          "type": "uint256"
        }
      ],
      "name": "memberRooms",
      "outputs": [
        {
          "internalType": "uint256",
          "name": "",
          "type": "uint256"
        }
      ],
      "stateMutability": "view",
      "type": "function"
    },
    {
      "inputs": [
        {
          "internalType": "uint256",
          "name": "",
          "type": "uint256"
        },
        {
          "internalType": "address",
          "name": "",
          "type": "address"
        }
      ],
      "name": "members",
      "outputs": [
        {
          "internalType": "bool",
          "name": "",
          "type": "bool"
        }
      ],
      "stateMutability": "view",
      "type": "function"
    },
    {
      "inputs": [],
      "name": "roomCount",
      "outputs": [
        {
          "internalType": "uint256",
          "name": "",
          "type": "uint256"
        }
      ],
      "stateMutability": "view",
      "type": "function"
    },
    {
      "inputs": [
        {
          "internalType": "uint256",
          "name": "",
          "type": "uint256"
        }
      ],
      "name": "rooms",
      "outputs": [
        {
          "internalType": "uint256",
          "name": "id",
          "type": "uint256"
        },
        {
          "internalType": "string",
          "name": "name",
          "type": "string"
        },
        {
          "internalType": "bytes32",
          "name": "keyHash",
          "type": "bytes32"
        },
        {
          "internalType": "address",
          "name": "creator",
          "type": "address"
        },
        {
          "internalType": "uint256",
          "name": "createdAt",
          "type": "uint256"
        },
        {
          "internalType": "uint256",
          "name": "memberCount",
          "type": "uint256"
        },
        {
          "internalType": "bool",
          "name": "creatorOnlyUpload",
          "type": "bool"
        },
        {
          "internalType": "bool",
          "name": "exists",
          "type": "bool"
        }
      ],
      "stateMutability": "view",
      "type": "function"
    }
  ],
  "bytecode": "0x6080604052348015600e575f5ffd5b50611be78061001c5f395ff3fe608060405234801561000f575f5ffd5b506004361061009c575f3560e01c8063754cc47011610064578063754cc470146101975780637d9e10f5146101c7578063b3209bb8146101f7578063bb1895c814610227578063df93a4e3146102575761009c565b806306541795146100a057806318a92553146100d05780631bae0ac8146101005780636d8a74cb14610137578063730eadb214610167575b5f5ffd5b6100ba60048036038101906100b59190610eae565b610275565b6040516100c79190610f99565b60405180910390f35b6100ea60048036038101906100e59190611016565b610308565b6040516100f7919061106e565b60405180910390f35b61011a60048036038101906101159190611087565b61059c565b60405161012e98979695949392919061114f565b60405180910390f35b610151600480360381019061014c9190611087565b61069d565b60405161015e91906112f4565b60405180910390f35b610181600480360381019061017c919061146a565b610869565b60405161018e91906114d6565b60405180910390f35b6101b160048036038101906101ac91906114ef565b610b9d565b6040516101be919061106e565b60405180910390f35b6101e160048036038101906101dc91906114ef565b610d2e565b6040516101ee919061106e565b60405180910390f35b610211600480360381019061020c919061152d565b610d90565b60405161021e91906114d6565b60405180910390f35b610241600480360381019061023c91906114ef565b610dbb565b60405161024e919061106e565b60405180910390f35b61025f610de5565b60405161026c91906114d6565b60405180910390f35b606060025f8373ffffffffffffffffffffffffffffffffffffffff1673ffffffffffffffffffffffffffffffffffffffff1681526020019081526020015f208054806020026020016040519081016040528092919081815260200182805480156102fc57602002820191905f5260205f20905b8154815260200190600101908083116102e8575b50505050509050919050565b5f5f5f8481526020019081526020015f2060060160019054906101000a900460ff16610369576040517f08c379a0000000000000000000000000000000000000000000000000000000008152600401610360906115b5565b60405180910390fd5b60015f8481526020019081526020015f205f3373ffffffffffffffffffffffffffffffffffffffff1673ffffffffffffffffffffffffffffffffffffffff1681526020019081526020015f205f9054906101000a900460ff1615610402576040517f08c379a00000000000000000000000000000000000000000000000000000000081526004016103f99061161d565b60405180910390fd5b815f5f8581526020019081526020015f206002015414610457576040517f08c379a000000000000000000000000000000000000000000000000000000000815260040161044e90611685565b60405180910390fd5b6001805f8581526020019081526020015f205f3373ffffffffffffffffffffffffffffffffffffffff1673ffffffffffffffffffffffffffffffffffffffff1681526020019081526020015f205f6101000a81548160ff0219169083151502179055505f5f8481526020019081526020015f206005015f8154809291906104dd906116d0565b919050555060025f3373ffffffffffffffffffffffffffffffffffffffff1673ffffffffffffffffffffffffffffffffffffffff1681526020019081526020015f2083908060018154018082558091505060019003905f5260205f20015f90919091909150553373ffffffffffffffffffffffffffffffffffffffff16837f961d9d512d12c6c50b6564aeeafafa1d536d1ee86cf277f6cb15d57f091cb5774260405161058a91906114d6565b60405180910390a36001905092915050565b5f602052805f5260405f205f91509050805f0154908060010180546105c090611744565b80601f01602080910402602001604051908101604052809291908181526020018280546105ec90611744565b80156106375780601f1061060e57610100808354040283529160200191610637565b820191905f5260205f20905b81548152906001019060200180831161061a57829003601f168201915b505050505090806002015490806003015f9054906101000a900473ffffffffffffffffffffffffffffffffffffffff1690806004015490806005015490806006015f9054906101000a900460ff16908060060160019054906101000a900460ff16905088565b6106a5610deb565b5f5f8381526020019081526020015f2060060160019054906101000a900460ff16610705576040517f08c379a00000000000000000000000000000000000000000000000000000000081526004016106fc906115b5565b60405180910390fd5b5f5f8381526020019081526020015f20604051806101000160405290815f820154815260200160018201805461073a90611744565b80601f016020809104026020016040519081016040528092919081815260200182805461076690611744565b80156107b15780601f10610788576101008083540402835291602001916107b1565b820191905f5260205f20905b81548152906001019060200180831161079457829003601f168201915b5050505050815260200160028201548152602001600382015f9054906101000a900473ffffffffffffffffffffffffffffffffffffffff1673ffffffffffffffffffffffffffffffffffffffff1673ffffffffffffffffffffffffffffffffffffffff1681526020016004820154815260200160058201548152602001600682015f9054906101000a900460ff161515151581526020016006820160019054906101000a900460ff1615151515815250509050919050565b5f5f8451116108ad576040517f08c379a00000000000000000000000000000000000000000000000000000000081526004016108a4906117be565b60405180910390fd5b6020845111156108f2576040517f08c379a00000000000000000000000000000000000000000000000000000000081526004016108e990611826565b60405180910390fd5b5f5f1b8303610936576040517f08c379a000000000000000000000000000000000000000000000000000000000815260040161092d9061188e565b60405180910390fd5b60035f815480929190610948906116d0565b91905055505f60035490506040518061010001604052808281526020018681526020018581526020013373ffffffffffffffffffffffffffffffffffffffff168152602001428152602001600181526020018415158152602001600115158152505f5f8381526020019081526020015f205f820151815f015560208201518160010190816109d69190611a4c565b50604082015181600201556060820151816003015f6101000a81548173ffffffffffffffffffffffffffffffffffffffff021916908373ffffffffffffffffffffffffffffffffffffffff1602179055506080820151816004015560a0820151816005015560c0820151816006015f6101000a81548160ff02191690831515021790555060e08201518160060160016101000a81548160ff0219169083151502179055509050506001805f8381526020019081526020015f205f3373ffffffffffffffffffffffffffffffffffffffff1673ffffffffffffffffffffffffffffffffffffffff1681526020019081526020015f205f6101000a81548160ff02191690831515021790555060025f3373ffffffffffffffffffffffffffffffffffffffff1673ffffffffffffffffffffffffffffffffffffffff1681526020019081526020015f2081908060018154018082558091505060019003905f5260205f20015f90919091909150553373ffffffffffffffffffffffffffffffffffffffff16817f9057be92479d7c9d16b111b585d8470ab107c39f0ed21b4e9e9722bb0b45db328742604051610b8a929190611b1b565b60405180910390a3809150509392505050565b5f5f5f8481526020019081526020015f2060060160019054906101000a900460ff16610bfe576040517f08c379a0000000000000000000000000000000000000000000000000000000008152600401610bf5906115b5565b60405180910390fd5b60015f8481526020019081526020015f205f8373ffffffffffffffffffffffffffffffffffffffff1673ffffffffffffffffffffffffffffffffffffffff1681526020019081526020015f205f9054906101000a900460ff16610c96576040517f08c379a0000000000000000000000000000000000000000000000000000000008152600401610c8d90611b93565b60405180910390fd5b5f5f8481526020019081526020015f206006015f9054906101000a900460ff1615610d23578173ffffffffffffffffffffffffffffffffffffffff165f5f8581526020019081526020015f206003015f9054906101000a900473ffffffffffffffffffffffffffffffffffffffff1673ffffffffffffffffffffffffffffffffffffffff16149050610d28565b600190505b92915050565b5f60015f8481526020019081526020015f205f8373ffffffffffffffffffffffffffffffffffffffff1673ffffffffffffffffffffffffffffffffffffffff1681526020019081526020015f205f9054906101000a900460ff16905092915050565b6002602052815f5260405f208181548110610da9575f80fd5b905f5260205f20015f91509150505481565b6001602052815f5260405f20602052805f5260405f205f915091509054906101000a900460ff1681565b60035481565b6040518061010001604052805f8152602001606081526020015f81526020015f73ffffffffffffffffffffffffffffffffffffffff1681526020015f81526020015f81526020015f151581526020015f151581525090565b5f604051905090565b5f5ffd5b5f5ffd5b5f73ffffffffffffffffffffffffffffffffffffffff82169050919050565b5f610e7d82610e54565b9050919050565b610e8d81610e73565b8114610e97575f5ffd5b50565b5f81359050610ea881610e84565b92915050565b5f60208284031215610ec357610ec2610e4c565b5b5f610ed084828501610e9a565b91505092915050565b5f81519050919050565b5f82825260208201905092915050565b5f819050602082019050919050565b5f819050919050565b610f1481610f02565b82525050565b5f610f258383610f0b565b60208301905092915050565b5f602082019050919050565b5f610f4782610ed9565b610f518185610ee3565b9350610f5c83610ef3565b805f5b83811015610f8c578151610f738882610f1a565b9750610f7e83610f31565b925050600181019050610f5f565b5085935050505092915050565b5f6020820190508181035f830152610fb18184610f3d565b905092915050565b610fc281610f02565b8114610fcc575f5ffd5b50565b5f81359050610fdd81610fb9565b92915050565b5f819050919050565b610ff581610fe3565b8114610fff575f5ffd5b50565b5f8135905061101081610fec565b92915050565b5f5f6040838503121561102c5761102b610e4c565b5b5f61103985828601610fcf565b925050602061104a85828601611002565b9150509250929050565b5f8115159050919050565b61106881611054565b82525050565b5f6020820190506110815f83018461105f565b92915050565b5f6020828403121561109c5761109b610e4c565b5b5f6110a984828501610fcf565b91505092915050565b6110bb81610f02565b82525050565b5f81519050919050565b5f82825260208201905092915050565b8281835e5f83830152505050565b5f601f19601f8301169050919050565b5f611103826110c1565b61110d81856110cb565b935061111d8185602086016110db565b611126816110e9565b840191505092915050565b61113a81610fe3565b82525050565b61114981610e73565b82525050565b5f610100820190506111635f83018b6110b2565b8181036020830152611175818a6110f9565b90506111846040830189611131565b6111916060830188611140565b61119e60808301876110b2565b6111ab60a08301866110b2565b6111b860c083018561105f565b6111c560e083018461105f565b9998505050505050505050565b5f82825260208201905092915050565b5f6111ec826110c1565b6111f681856111d2565b93506112068185602086016110db565b61120f816110e9565b840191505092915050565b61122381610fe3565b82525050565b61123281610e73565b82525050565b61124181611054565b82525050565b5f61010083015f83015161125d5f860182610f0b565b506020830151848203602086015261127582826111e2565b915050604083015161128a604086018261121a565b50606083015161129d6060860182611229565b5060808301516112b06080860182610f0b565b5060a08301516112c360a0860182610f0b565b5060c08301516112d660c0860182611238565b5060e08301516112e960e0860182611238565b508091505092915050565b5f6020820190508181035f83015261130c8184611247565b905092915050565b5f5ffd5b5f5ffd5b7f4e487b71000000000000000000000000000000000000000000000000000000005f52604160045260245ffd5b611352826110e9565b810181811067ffffffffffffffff821117156113715761137061131c565b5b80604052505050565b5f611383610e43565b905061138f8282611349565b919050565b5f67ffffffffffffffff8211156113ae576113ad61131c565b5b6113b7826110e9565b9050602081019050919050565b828183375f83830152505050565b5f6113e46113df84611394565b61137a565b905082815260208101848484011115611400576113ff611318565b5b61140b8482856113c4565b509392505050565b5f82601f83011261142757611426611314565b5b81356114378482602086016113d2565b91505092915050565b61144981611054565b8114611453575f5ffd5b50565b5f8135905061146481611440565b92915050565b5f5f5f6060848603121561148157611480610e4c565b5b5f84013567ffffffffffffffff81111561149e5761149d610e50565b5b6114aa86828701611413565b93505060206114bb86828701611002565b92505060406114cc86828701611456565b9150509250925092565b5f6020820190506114e95f8301846110b2565b92915050565b5f5f6040838503121561150557611504610e4c565b5b5f61151285828601610fcf565b925050602061152385828601610e9a565b9150509250929050565b5f5f6040838503121561154357611542610e4c565b5b5f61155085828601610e9a565b925050602061156185828601610fcf565b9150509250929050565b7f526f6f6d20646f6573206e6f74206578697374000000000000000000000000005f82015250565b5f61159f6013836110cb565b91506115aa8261156b565b602082019050919050565b5f6020820190508181035f8301526115cc81611593565b9050919050565b7f416c72656164792061206d656d626572000000000000000000000000000000005f82015250565b5f6116076010836110cb565b9150611612826115d3565b602082019050919050565b5f6020820190508181035f830152611634816115fb565b9050919050565b7f496e76616c6964206b65790000000000000000000000000000000000000000005f82015250565b5f61166f600b836110cb565b915061167a8261163b565b602082019050919050565b5f6020820190508181035f83015261169c81611663565b9050919050565b7f4e487b71000000000000000000000000000000000000000000000000000000005f52601160045260245ffd5b5f6116da82610f02565b91507fffffffffffffffffffffffffffffffffffffffffffffffffffffffffffffffff820361170c5761170b6116a3565b5b600182019050919050565b7f4e487b71000000000000000000000000000000000000000000000000000000005f52602260045260245ffd5b5f600282049050600182168061175b57607f821691505b60208210810361176e5761176d611717565b5b50919050565b7f4e616d652063616e6e6f7420626520656d7074790000000000000000000000005f82015250565b5f6117a86014836110cb565b91506117b382611774565b602082019050919050565b5f6020820190508181035f8301526117d58161179c565b9050919050565b7f4e616d6520746f6f206c6f6e67000000000000000000000000000000000000005f82015250565b5f611810600d836110cb565b915061181b826117dc565b602082019050919050565b5f6020820190508181035f83015261183d81611804565b9050919050565b7f496e76616c6964206b65792068617368000000000000000000000000000000005f82015250565b5f6118786010836110cb565b915061188382611844565b602082019050919050565b5f6020820190508181035f8301526118a58161186c565b9050919050565b5f819050815f5260205f209050919050565b5f6020601f8301049050919050565b5f82821b905092915050565b5f600883026119087fffffffffffffffffffffffffffffffffffffffffffffffffffffffffffffffff826118cd565b61191286836118cd565b95508019841693508086168417925050509392505050565b5f819050919050565b5f61194d61194861194384610f02565b61192a565b610f02565b9050919050565b5f819050919050565b61196683611933565b61197a61197282611954565b8484546118d9565b825550505050565b5f5f905090565b611991611982565b61199c81848461195d565b505050565b5b818110156119bf576119b45f82611989565b6001810190506119a2565b5050565b601f821115611a04576119d5816118ac565b6119de846118be565b810160208510156119ed578190505b611a016119f9856118be565b8301826119a1565b50505b505050565b5f82821c905092915050565b5f611a245f1984600802611a09565b1980831691505092915050565b5f611a3c8383611a15565b9150826002028217905092915050565b611a55826110c1565b67ffffffffffffffff811115611a6e57611a6d61131c565b5b611a788254611744565b611a838282856119c3565b5f60209050601f831160018114611ab4575f8415611aa2578287015190505b611aac8582611a31565b865550611b13565b601f198416611ac2866118ac565b5f5b82811015611ae957848901518255600182019150602085019450602081019050611ac4565b86831015611b065784890151611b02601f891682611a15565b8355505b6001600288020188555050505b505050505050565b5f6040820190508181035f830152611b3381856110f9565b9050611b4260208301846110b2565b9392505050565b7f4e6f742061206d656d62657200000000000000000000000000000000000000005f82015250565b5f611b7d600c836110cb565b9150611b8882611b49565b602082019050919050565b5f6020820190508181035f830152611baa81611b71565b905091905056fea2646970667358221220e6bd62096ac7d204d89aa2bbe4687eafcacbfca3565d8c9f527780066150f53f64736f6c634300081c0033",
  "linkReferences": {},
  "deployedLinkReferences": {},
  "immutableReferences": {},
  "inputSourceName": "project/contracts/vaultRoom.sol",
  "buildInfoId": "solc-0_8_28-880c705dfe58d56c190d21450759f48a5fd06f22"
}